:02000004003EBC
:04800000007E87DC9B
:20800200761F01C4280001508F00710018C4FFBF2B0118CCF7FF1801FBFF280200052B1C62
:2080120028033210280476542805BA982806FEDC281800E428A922DE9B027640061F0006F1
:20802200CCC43FFF1AA9800096C418C4DFFF18C4E3FF18C4FC7F18C4FFBF1AC400301AC47E
:20803200000818C4FFFB18C4FFFC1AFC00101AFC0040D00BCC94FFFE50029694CC94FFDF0B
:2080420050109694D00CCC94FFFE50029694CC94FDFF1AA901009694020F07A483A918C5D0
:20805200FFFC021E07A483A918C5FFFED0122B94D0142894000FD0152B94D0192B94D01ABC
:208062002B94D0092B94D00A2B9428EC0DAC0006D0142B94D0152894900AD0172B948F40E8
:20807200C350D010A094021607A483A918C57FFFD016CC94FFCF50409694CC94FFF050040C
:208082009694021607A483A91AC58000D0182B9402001ED428AAFFFF28ABFFFFA9E4021586
:2080920007A48AA91AC4008000068F000C00761F0203A82A28AAFFFF28ABFFFF761F00301F
:2080A200A9022B062B071AE400101A0400200200761F02031E2C8F000C08A81A761F003054
:2080B200A90A2B0E2B0F1AE400101A0C00200200761F02031E1C0006B2BDFE028BA4C448AE
:2080C2001EE1C2F1C242767E89A9767E8A038AC11ED48AC12BF48AC12BFC8AC11AE40010CF
:2080D2008AC11AE400208AC11AE404008AC11AE408008AC11AE4400002001ED1FE828BBE44
:2080E2000006FE023B10FF69767E8097761F00331A2200407622761F00358F3E8589A80C85
:2080F200761A76230001762320009A0028A8447A1E42FF698F0080EA28A842C8767E80BE96
:208102002910FE82FF690006761B2942561676177602761B29425616762556CF0000761B10
:2081120029425616762556CF0000761B29425616762556CF0000761B29425616762556CF66
:208122000000761B29425616762556CF0000761B29425616762556CF0000761B2942561685
:20813200762556CF0000761B29425616762556CF0000761B29425616762556CF0000761B8C
:2081420029425616762556CF0000761B29425616762556CF0000761B29425616762556CF36
:208152000000761B29425616762556CF0000761B29425616762556CF0000761B2942561655
:20816200762556CF0000761B29425616762556CF0000761B29425616762556CF0000761B5C
:2081720029425616762556CF0000761B29425616762556CF0000761B29425616762556CF06
:208182000000761B29425616762556CF0000761B29425616762556CF0000761B2942561625
:20819200762556CF0000761B29425616762556CF0000761B29425616762556CF0000761B2C
:2081A20029425616762556CF0000761B29425616762556CF0000761B29425616762556CFD6
:2081B2000000761B29425616762556CF0000761B29425616762556CF0000761B29425616F5
:2081C200762556CF0000761B29425616762556CF0000761B29425616762556CF0000761BFC
:2081D20029425616762556CF0000761B29425616762556CF0000761B29425616762556CFA6
:2081E2000000761B29425616762556CF0000761B29425616762556CF0000761B29425616C5
:2081F200762556CF0000761B29425616762556CF0000761B29425616762556CF0000761BCC
:2082020029425616762556CF0000761B29425616762556CF0000761B29425616762556CF75
:208212000000761B29425616762556CF0000761B29425616762556CF0000761B2942561694
:20822200762556CF0000761B29425616762556CF0000761B29425616762556CF0000761B9B
:2082320029425616762556CF0000761B2942561676177602761B29425616762556CF000000
:20824200761B29425616762556CF0000761B29425616762556CF0000761B294256167625C9
:2082520056CF0000761B29425616762556CF0000761B29425616762556CF0000761B29429B
:208262005616762556CF0000761B29425616762556CF0000761B29425616762556CF000080
:20827200761B29425616762556CF000076220200761F01BE1E0628AA050A28AB0015A90838
:2082820002001E1628AA2CFD28AB3FFFA90A02061E1A28AACCCF28ABFFFFA90C28AAFFFFE4
:20829200A91C02001E021E041E12761AFF690006C444A0A90FA456C9000C03A4190183A979
:2082A200928496860200DD8119010FA5EDFA00063B10761F00331820FFFE2B222B242B263A
:2082B2002B282B2A2B2C2B2E2B302B322B342B362B382B232B252B272B292B2B2B2D2B2F2D
:2082C2002B312B332B352B372B39FF690006761F00331A2000012821FFFF2910FF6900065D
:2082D20076228F7E99AEBE7F8F000D0006851E84000EFFFE761A761F00331A200001FF6994
:2082E2000006761F01C14714EFFD9619000692C4EC14520AED07761F01C14714EFFD28199E
:2082F200000D761F01C14714EFFD9619D501A8A90DA58AA992C4EDEE0006A2BDFE025CAD67
:20830200DC88A84283488DC085008AA3767E8A938AA3767E82E9FE8282BE0006761F01C189
:208312004615EFFD92170006761F01C128100007281100032B122813001A8F00705018E4A6
:20832200FFFD18E4FFFE281AA000281C40001ACC00200006560308A9D0088F007040969489
:208332001AD40020761F01C14602EFFDCC0700FF0006B2BDA2BD8DC06FC01ADB0008FF2E46
:208342000003767E867F1AEB0008FF2E0003767E867F761F01C11A0000809AD7767E832CE4
:208352009A00767E832C59A9761F01BF1A030008FF2E0003767E867FCCA10008ECDF82BEA9
:208362008BBE0006B2BDAABDA2BDFE0459A986A47D415BA8767E833B8F006FC0A8441ADC36
:208372000008FF2E0003767E867F8A441AEC0008FF2E0003767E867F761F01C11A000080C4
:208382009A82767E832C92A1FFC69003767E832C560301A193A3FFD790FF9101CBA992A818
:20839200767E832CCCA300FF767E832C9241EC0B9CFF5DA9D100CC9A00FF767E832CD901F9
:2083A200000DFFFB761F01BF1A030008FF2E0003767E867FFE8482BE86BE8BBE0006B2BD4D
:2083B200AABDA2BDFE0459A986A47D415BA8767E833B8F006FC0A8441ADC0008FF2E00036C
:2083C200767E867F8A441AEC0008FF2E0003767E867F761F01C11A0000809A82767E832CED
:2083D20092A1FFC69003767E832C560301A193A3FFD790FF9101CBA992A8767E832CCCA375
:2083E20000FF767E832C9241EC0B9CFF5DA9D100CC9A00FF767E832CD901000DFFFB761F1F
:2083F20001BF1A030008FF2E0003767E867FFE8482BE86BE8BBE0006B2BDAABDA2BDFE04D1
:2084020059A986A47D415BA8767E833B8F006FC0A8441ADC0008FF2E0003767E867F8A441C
:208412001AEC0008FF2E0003767E867F761F01C11A0000809AD2767E832C92A1FFC6900388
:20842200767E832C560301A193A3FFD790FF9101CBA992A8767E832CCCA300FF767E832C0D
:208432009A00767E832C9A00767E832C9A00767E832C9A00767E832C9241EC0B9CFF88A9A0
:20844200D1009A00767E832C969AD901000EFFFB761F01BF1A030008FF2E0003767E867F57
:20845200FE8482BE86BE8BBE0006B2BDAABDA2BDFE0459A986A47D415BA8767E833B8F0050
:208462006FC0A8441ADC0008FF2E0003767E867F8A441AEC0008FF2E0003767E867F761F1E
:2084720001C11A0000809AD2767E832C92A1FFC69003767E832C560301A193A3FFD790FFBB
:208482009101CBA992A8767E832CCCA300FF767E832C9A00767E832C9A00767E832C9A00D2
:20849200767E832C9A00767E832C9241EC0B9CFF88A9D1009A00767E832C969AD901000E2E
:2084A200FFFB761F01BF1A030008FF2E0003767E867FFE8482BE86BE8BBE0006761F01C171
:2084B200280000072801001F2B022B04280A80002B0B2B0C280F001000067622761F01C07D
:2084C20028250055282500AA761AFF6900067622761F01C028290068761AFF690006761FC9
:2084D20001C04311EF0276254111EF031811FFFDD0118F0070109394910F55A9EC13762234
:2084E2001ACC0040CD21FFF0900FCAA89621761AFF69767E84C94011EFFF76221811FFBFB8
:2084F200761AFF6900067622761F01C0281A0001281B00028F407010CCC5FFFE500296C56C
:208502002B1C2B1D020C07A58AA91AC400081A1C04001A1C0100020D07A58AA91AC440007A
:208512001A1D80001A1D00011A1D00021A1C0004761AFF690006767E84C99A0A767E84D1BB
:20852200767E84F50006FE023B10FF69767E851D767E82788F000600A8428F7EA00D8F3E89
:208532009FEA767E829A8F3FA000A8428F4000008F000000767E829A767E82AA762600000E
:20854200762F0000767E82D276400600767E8316767E84B0767E86FE8F006840767E802276
:208552008F006800767E80228F006B40767E806A8F006B00767E806A767E8002767E80E3BF
:20856200767E82C92910FE82FF690006FE08767E8525761F00301804FFEF761F0200920FE8
:20857200ECFD8F3E9AEE920EA84296439209964492089645920A9646920C9647920B9648F0
:20858200767E82FF761F02002B0F56CFFFE8761BA8BD29425616761F003328210001761F13
:2085920002000A0F920DED2D920EEC1C520156C000E38F000BB8761F0030A802761F01BFEB
:2085A2001A040020761F01C41A012000761F002C9200761F02009609280D00012B0E56CFC9
:2085B20000CB8F0002BC761F0030A802761F01BF1A020020761F0200280E000156CF00BCE2
:2085C200520156C100905202EC625203EC35520456C000B2920EEC21520156C000AD8F0017
:2085D2000BB8761F0030A802761F01BF1A040001761F01C41A012000761F002C9204761F62
:2085E2000200960B761F01C41A014000761F02002B0D2B0E56CF00908F0002BC761F003052
:2085F200A802761F01BF1A020001761F0200280E000156CF0081920EEC1B5201ED7C8F00E7
:208602000BB8761F0030A802761F01BF1A040004761F01C41A012000761F002C9203761F2F
:208612000200960C280D00042B0E56CF00658F0002BC761F0030A802761F01BF1A02000477
:20862200761F0200280E000156CF0056920EEC1B5201ED518F000BB8761F0030A802761F61
:2086320001BF1A040008761F01C41A012000761F002C9202761F0200960A280D00032B0EB0
:2086420056CF003A8F0002BC761F0030A802761F01BF1A020008761F0200280E000156CF91
:20865200002B920EEC1B5201ED268F000BB8761F0030A802761F01BF1A040010761F01C432
:208662001A012000761F002C9201761F02009608280D00022B0E56CF000F8F0002BC761FAE
:208672000030A802761F01BF1A020010761F0200280E00018ABE76177602FF58EC057700B3
:2086820077001901EDFDFF690006B2BDAABDA2BDFE145AA85300EC3B88ADDE94767E8A7C8B
:208692005CAD88AD8F7E9B2CDC94DE90767E88FD5CAD88AD8F7E9B28DC90DE8C767E88728D
:2086A2005CAD88AD8F7E9B24DC8CDE88767E89805CAD88AD8F7E9B20DC88DE84767E887229
:2086B2005CADDC84767E898E8DC06FC08BA992A29CFF5AA9B2A97640061F1AD31000B2A924
:2086C2007640061F1AE31000000AFFF6FE9482BE86BE8BBE000680A98F406FC01AED04001A
:2086D2001ADD0080020A07A58AA91AC40001761F01BF1A030400020C07A58AA91AC4000105
:2086E200BE079B071A0504009A012DA8FF66CEA7ED051A05004056CF00041A0300401A03B0
:2086F20004009DFF000EFFF0020A07A58AA91AC400011AED040000068F406FC0020C07A538
:208702008AA91AC400011AED0400761F01BF1A0500401A0500809A81767E86CD9A4D767EAA
:2087120086CD0006B2BD83A476C06FC01AEF04001AEF0080020A07A71EA61AC600011ADF05
:208722000400020C07A71EA61AC6000176FE9D413B012BABD407D104C4A72DC5350581A105
:20873200560100A62FC69A06BE06D0062DA974A093AAFF6591012DA0FF6799AB9CFF000EBE
:20874200FFF6BE079A078D006FC51AC004009B012DA9FF67CFABED051AC0004056CF000694
:20875200761F01BF1A0300408D006FC01AD804009CFF000EFFEA2BAB92A19CFF59A956C352
:20876200FFCDA0A9BE010DA683A9000CFFC6020A07A08AA91AC400011AE804008BBE000659
:20877200A2BDFE025CADDC88A84283488DC083108AA3767E8A938AA3767E8714FE8282BECC
:20878200000608AD01005CAD08A4FF008F7E9C41FF280001767E8A4D5CAD08A4FF005DA4D5
:2087920076808040D40976C0803292C790FF96859287FFC7968592C690FF96859286FFC76F
:2087A2009685000CFFF45CAD8F400100020108A4FF00767E83B108ADFF00000608AD01007E
:2087B2005CAD08A4FF00D500FF280001767E8A6D5CAD8F400100020108A4FF00767E8457B5
:2087C2005CAD08A4FF005DA47680803276C08040D409C68596C656030885CAC69686C685E3
:2087D20096C756030885CAC79687000CFFF408ADFF000006561F7622B9C028290068761A0E
:2087E200007E87E428AD0000FF69561F5616561A2940761F00002902761B762228A99FC17D
:2087F20028A8003E0901611B76FE9FC129046F0F9B0024A9DF016C04290424A8DF011EA6FF
:20880200F7A1248606A781A109011EA724A96303FF5C3B0459A9DF010009FFEC761A28A972
:20881200FFFF28A8FFFF0901610E76FFFFFF6F06DF01C3BD1EA73E67C5BE24A9DF0124A853
:20882200FF5860F7767E9259767E8828B2BD761F0203AABDC53C3E67761F0204590092A1C8
:20883200EC103B018F008140560301A1560100A486A4DA82C5C23E6792A19CFF59A9EDFA3F
:20884200761F02040602EC031EA73E67761F02040604EC031EA73E6777006F00761F02039C
:20885200B2BDC53C8BA43E67761F0204920052206407761F0203C53A3E679A016F0F3B0125
:208862008F00814056030100560100A4B2C40A00761F0203C53A3E679A008BBE00066F003B
:20887200B2BDAABDA2BDFE0206A661795FDD93DCF3A7A3C406D4FF90FFD4974106D456AA91
:208882001AA8800056998EA9A9A11B41000061721B4107FF6169A3C506D5FF90FFD497424B
:2088920006D556AA1AA88000569986A9A9A31B420000615A1B4207FF615D93419F4297A416
:2088A20002001ED61EC628A500353AA9B2AB2B410FA26003A9A90FA3680BB2A9565500A3FA
:2088B2008BA93AA9565400A28EA92841000106D6A3C656A01ED6A9A994411EC63AA9B2AB28
:2088C20056A08EA9A9A16103000DFFE30AA560020AA508A500092DA506D6A3C65652640330
:2088D20056A00BA456908DC00200565700A3D300564000A3630418A87FFF0AA45699910F6E
:2088E20008A403FF65171BA407FF630E18A7800099A793A4FF93CBA7A9C61ED6FE8282BE39
:2088F20086BE8BBE00065633CDA780001AA87FF06FF456336FF2B2BDAABDA2BDFE0206A6F7
:2089020061715FDD93DCF3A7A3C406D4FF90FFD4974106D456AA1AA880008EA9A9A11B41CA
:208912000000616B1B4107FF6162A3C506D5FF90FFD4974206D556AA1AA8800086A9A9A33E
:208922001B420000615A1B4207FF61519341954297A45633A2AC564700A1A9A9560500A0C0
:20893200565300ABB2AC560500A2565300AB562800A99B00565CB2AC564700A2565300ABBD
:208942003AAC564700A3565300AB560500A2565300AB1EC6562800A99B00564700A25653BC
:2089520000AB1ED6A3C6630356900AA48DC00200565700A3D300564000A3630418A87FFFB3
:208962000AA45699910F08A4FC0165171BA407FF630E18A7800099A793A4FF93CBA7A9C634
:208972001ED6FE8282BE86BE8BBE00065633CDA780001AA87FF06FF456336FF2FE0406D5C6
:208982001E4206C51E441C4180005DADDD845DA5767E948EFE84000606D46418A3C406D4C9
:20899200FF90FFD497A506D456AA1AA8800008A5FC01640C2FA89B1F9FA564052DA893AAA1
:2089A20056220006020019016FFD02006FFB3ABDB2BDAABDA2BDFE022901FF5861455CA8EC
:2089B200917F08A800801E4293A4FFD65CA8064E613B5DA8917F08A8008059A858A993A586
:2089C200FFD65DA893A471A518A8010097A618A400FF18A500FFDCFF92A494A596A7642FDF
:2089D20008A9FF0162272D4236A037A1FF4F07ABFF5A2D4136A007AB37A105AB09406304A7
:2089E200FF4008A70001FF5A93A7651908A8FF016311A9A9FF46917F5BA85AA925A695A79D
:2089F200FF960CA295A3FE8282BE86BE8BBE8EBE000693A6FF9608A87F7F6FF6FF2000004B
:208A02006FF32902FF58611B5CA8917F08A80080FF362FA893A4FFD65CA891FF08A8FF81D4
:208A1200640F08A8FFE2620F6106FF5D2DA893AA56226F0293AA48A46C02FF540006FF2002
:208A22000000000628A87FFF28A9FFFF48A46CF709010006767E8A4D00065200C5A4EC0733
:208A32009CFF88A992859687000EFFFE00065200C5A4EC079CFF88A992859687000EFFFE5A
:208A420000065200C5A4EC079CFF88A992859687000EFFFE0006FF5AC5A48EA492ABEC072B
:208A52009CFF88A992859687000EFFFE92AB88A9A9A90FA6EC0F93AAEC0D9DFF5CA876BF7E
:208A6200FFFE92859687000EFFFE92859687000CFFF88AA00006FF58FF5AC4A4DE81EC0AE4
:208A720006A6B6010DA71EA6A9A919017DC6FF5AEDF80006FF5A06A66112A9A9FF3F61109D
:208A820031008F00040D620456900AA46F03F60FFF74569D93A456A3A9C61ED6000656330A
:208A92006FFCFE0A064EA048A84A5CADDC8AA8428F3E8AA9A8448F3E8AB1A8465CAD83A9B3
:208AA200DC88767E8ACE8A4A2BC4FE8A000683C488A996C50201560100C492A60006B2BD15
:208AB200AABDA2BD82A486A5767E994F83A38AC28BA9767E8A4DB2A9560100C282BE92A159
:208AC20086BE8BBE00060006761F0203A83C0006761F0203A83A0006B2BDAABDA2BDFE14AE
:208AD2008BA4A04806601E5006C11E528AC18262865E767E994F1EA6065207A6C4520FA6DF
:208AE2002B491E54FFE900C02B4D2B4C284BFFFF2B4A8AC192C45225EC12520056C100B4DE
:208AF20006C109018AA91EC1C550DC8192C48AA23E670A498AC192C45225EDF05CAD020194
:208B020083A1DC8D560100C1767E8BAA5CADDC88A8425CAD83A1DC8D767E8BCC8AC188C4B6
:208B120092A6524CEC155268EC10526CED17020107A48AA91EC192C4526CEC041A4D004089
:208B22006F0C1A4D01006F061A4D00206F031A4D00808AC1DC01A8C188C402017E4A5601FC
:208B320000C192A6526EEC235273EC14761F0203C53C3E675DAD5CADDD88DC8D767E8CB93C
:208B4200C5A383A23E67761F0203C53A72493E676F555CADDC88A8425CADDC89A8445CAD6A
:208B520083A2A246DC8D767E8C406F48CC4D01605220EC355240EC221BA90100EC07064863
:208B620090019B00FF58EC326F2F064890019B00FF58EC0302026F02020109013B01A35241
:208B7200564100488549568FA9528A48568FA952C4528AC4C2C41ED46F21064890019B00BE
:208B8200FF58EC0302026F0202010901564100488A488AC43B0185491EC46F1006489001C2
:208B92009B00FF58EC0302026F0202010901564100488A488AC4924996C4C4C106540FA698
:208BA200FFE6FF449249FE9482BE86BE8BBE00066F121AC400106F0C1AC400016F091AC42C
:208BB20000026F061AC400086F031AC400040201560100C5C4C592C6522B6208522BECF0B2
:208BC2005220ECF45223ECEF6F05522DECE65230ECE10006B2BDAABDA2BDFE0C8BA506560C
:208BD20082A41E4C8AC192C4522AEC215AADDA8A8AA2020AD500767E8A6D8AC192C4523043
:208BE200640A523A630896828AC1DC01A8C192C4523063F8934AEC085CADDC8A767E926DFF
:208BF20096CB8AC192C4522EEC156F448A4C8AC4834CDC81A8C592C4640396CB6F05FF5C83
:208C020096CB1AC300018AC1DC01A8C192C4522EED318AC1DC01A8C192C4522AEC1F5AAD19
:208C1200DA8A8AA2020AD500767E8A6D8AC192C45230640A523A630896828AC1DC01A8C1B5
:208C220092C4523063F8924AEC065CADDC8A767E926D6F029A0096D36F0D8A4C8AC4DC815E
:208C3200A8A98A4C1EC48AA992C496D30201560100C1FE8C82BE86BE8BBE0006B2BDAABDD9
:208C4200A2BDFE0AA044835406588BA41E4606C590019B008256FF58EC03BE026F02BE01FA
:208C52000201A3C507A6564100ABA9A4A9C506C41E48EC545AD192A2640A8A48767E994F02
:208C62001EA63B0192A285A90FA668058A48767E994F5AA992C9567200A23B01964172C3B0
:208C72009A01944185A9767E977BA84A064AEC3B9241824A54A2650F40C1EE0D9EA23B0154
:208C82008A4A9642D52085A9767E8A6D3B018542560100A383488AA33B0185A2767E995CD7
:208C92003B0185A2560100A3924154A2650940C1EF079EA28AA3D52085A9767E8A6D8A4AE8
:208CA2003B018541560100A42BC4C54683448A4A3E678A4A767E97E06F06C54683448F3E28
:208CB2009AC23E67FE8A82BE86BE8BBE0006B2BDAABD86A48F008340C4A43B01A2BD85CAA2
:208CC200560100A68BA4A8A9FE0A8F00018F560100A482A5D520A846C24A8AA12B47FF241D
:208CD2000019767E8A6D8A462BC48A46DC81A84692DA526462115264EC26524762085247AB
:208CE200EC2C5225EC195245EC286F3A5258EC1B5263EC2D6F355270620A526F631493A9C5
:208CF2009D9B5302691A5269EC0E6F2A5275EC0B5278EC096F258AA18F7E9ACA767E99408A
:208D0200FFEF00915CAD5DADDC86A8428AA2A244DD87767E90996F145CAD5DADDC86A842FE
:208D12008AA2A244DD87767E8D996F0A83C3DD81A0C392C596C4DC81A84618C2FFFD88C215
:208D22009B00CCA60002EC0B92DA5275EC08526FEC065278EC045258EC029B0192479748AB
:208D3200ED079248EC0C8A4628C4002B6F048A4628C4002D02015641004688C29247CA4803
:208D4200ED0BCCA60004EC088A46020128C400205641004688C2CCA60001ED0FB2A9034696
:208D5200FF10018F1EA63B0185CA0FA66406064A03A6090182A96F0282A183469A008AA3A2
:208D620028A80190DD01767E973AA846C446064A0FA6680B8A46064AD5200346DC810901B8
:208D7200767E8A6D8A4A2BC444C2EF16A2A98AA1D53003A1767E8A6D9247CA48ED0342C23F
:208D8200EF11B2A90FA3EC0E92C38F00834096C428C300306F08A2A98AA1D52003A1767E34
:208D92008A6D8AA1FE8A82BE86BE8BBE0006B2BDAABDA2BDFE0E8BA4A04C865847C1835A25
:208DA200EE2A06C590019B00FF58EC03BE026F02BE010201A3C507A688AD564100ABA9A490
:208DB200A9C5DE8606C41E4E767E959D88AD064EDE8A767E959D5CAD8F7E9AAEDC8A767EA4
:208DC200952AD30052006302D3018A4C92A37BC4ED246F2906C590019B00FF58EC03BE0284
:208DD2006F02BE010201A3C507A6564100ABA9A4A9C58AC4C4D406C45CAD1E468F7E9AAECA
:208DE200C244DC86767E952AD30052006302D3018A4C92A37BC4EC075CAD88ADDC86DE86B7
:208DF200767E955492D9526562085265EC185245EC165247EC066F195266EC0A5267ED1528
:208E02005CAD83A1AA42DC86767E8F256F0E5CAD83A1AA42DC86767E8E1B6F075CAD83A1F5
:208E1200AA42DC86767E8E5FFE8E82BE86BE8BBE0006B2BDAABDA2BD5AAD8BA508AD019AF6
:208E2200DA8AC4D406C482C21E48C24692D163039A0696D15CAD5DADDC83A8425CADDD8422
:208E3200DC88767E93A383A45CAD08A4FE68767E9940D00A5CAD06C31E9292D108A4FE68B2
:208E4200964183A392449B01767E8F8AD00AC49206C30FA6D501ED0443C1EE02D5005CAD4D
:208E520008A4FE68924493A583A3767E905108ADFE6682BE86BE8BBE0006B2BDAABDA2BDC4
:208E62005AADFE70D00ADA8A06C21E9282A5C4D406C4D00D1E48C24692D39692D00D929263
:208E72006307D00D28920006D00D929296D35CAD8F7E9AB2DC88767E952AD1005200634030
:208E82005CAD8F7E9AB6DC88767E952A520065125CAD8F7E9AAEDC88767E952A5200EC4D8A
:208E92005CAD8F7E9ABADC88767E952A5200640C6F1E28A9FFFF28AAFFFF28ABFFFF28A8B0
:208EA200FFEFA9481E4692A15CAD88AD8F7E9ABE9CFFDC88DE8859A9767E88FD5CAD8F7EA1
:208EB2009ABADC88767E952A520064EE5CAD8F7E9ABEDC88767E952A5200630C6F1E28A9ED
:208EC200FFFF28AAFFFF28ABFFFF28A87FEFA9481E4692A15CAD88AD8F7E9ABE9C01DC8887
:208ED200DE8859A9767E88725CAD8F7E9ABEDC88767E952A520063EE5CAD5DADD00DDC83B3
:208EE200A8425CADDD849292DC88767E93A383A45CADDCEC767E994092445202ED0E5CAD77
:208EF2000B4492A19C01DCEC59A9767E994F5CADDCED560100A42BC4D00A8A9293DB92A148
:208F0200767E901B92D3D00A5CAD964192448392DCEC9B01767E8F8A5CADDCEC767E994F88
:208F1200D1015444ED0443C3EE02D100D00A5CAD9244839293A1DCEC767E9051FEF082BE50
:208F220086BE8BBE0006B2BDAABDA2BD5AAD8BA5DA8AFE6EC4D406C482C21E46C24492D1ED
:208F3200ED039A0196D1520063039A0696D15CAD5DADDC88A8425CADDD87DC86767E92B701
:208F420083A45CADDCEC767E99409A0093471BA8FFFD640C93D15547631693475302640695
:208F52009DFF9C019747530263FC530062069D019CFF9747530065FC8AA393D99DFE767E86
:208F6200901B93D1C4C3D00A5CAD83A3C2929741DCECCDC10008FFD29247767E8F8AD00A35
:208F7200C49206C30FA6D500D400EC02D50192C19008CAA5EC02D40193A45CAD83A3924742
:208F8200DCEC767E9051FEEE82BE86BE8BBE0006B2BDAABDA2BDFE068BA51E42924F82A4A3
:208F92009643767E994F1EA6A2A907A619011E46924365129CFF5AA98AA3767E994F544247
:208FA200630B9241EC098AC1020128C40030564100C1000AFFF38AA3767E994F5442653582
:208FB200924264338AA3767E994F9E42934180A9ED175200652A93A79DFFD40188A8064642
:208FC2000DA41E468A46938C5330A846ED0992A79CFF80A9000EFFF8064619011E4692A71F
:208FD20065149CFFD40188A906460DA41E468A46928CA8468AC196C40201564100C1000E1A
:208FE200FFF8064619011E469242632EFF5C5AA9924354A265168AA3767E994F52006511D4
:208FF2009CFFD40188A906460DA41E468A46928CA8468AC196C40201564100C1000EFFF87C
:20900200924354A26304FF5C96425A439242630C92A29CFF88A98AC1020128C40030564108
:2090120000C1000EFFFAFE868AC182BE86BE8BBE0006B2BD5200AABD59A9A2BD86A45BA81E
:20902200FE0265043B0185A16F04FF5C3B0185A9568F284100648AA2D50A568F767E91C440
:2090320092A1520A630E1BA1FFF665078AC2020128C40030564100C292A163039A2D6F026C
:209042009A2B8AC296C48AC2DC81A8C27BC48AC2FE82DC81A8C282BE86BE8BBE0006B2BD7C
:20905200AABDA2BD8BA5FE025200D20082A41E42650C8AA3767E994F5442640786A33B017E
:209062008542560100A2DA819241EC078AC1020128C4002E564100C1924296416F088AC1E0
:20907200020128C40030564100C10B418AA3767E994F544164F59241650FA2A90FA2661269
:209082008AC192C2DA8196C40201564100C1A2A90FA269F76F078AC1020128C4003056414C
:2090920000C1FE828AC182BE86BE8BBE0006B2BDAABDA2BDFE068BA4A046865092D1835203
:2090A200640418C1FFEF6F0328D1000192D95258EC09526FEC095270EC055278EC03D30A0A
:2090B2006F04D3106F02D3088AA1767E910A8AA992D1ED07565EA8A9565EED039A016F44C1
:2090C20088D992A65264EC035269ED0C565EA8A9565E63088346A8A956588AA928C500018F
:2090D20088D9A8A95DA38AA27E41767E91C49C0154D188A9620C8AC2020128C40030564135
:2090E20000C292A69C0154D188A965F692D95278EC035258ED0E43C1EF0C8AC296C48AC26C
:2090F200DC810201A8C228C40030564100C292D9526FED0943C1EF078AC2020128C4003098
:20910200564100C29A00FE8682BE86BE8BBE000680DC92A75270ED1206C590019B00FF585F
:20911200EC03BE026F02BE010201A3C507A6564100ABA9A4A9C5A3C46F2B56331EA6CCC46B
:209122000160522056C100855240EC4C1BA90100EC2192A7526F620B526FEC155258EC1350
:209132005264EC0B5269EC09FFEF008C5275EC0B5278EC09FFEF00868AC53B01DC81A8C500
:2091420085C46F528AC5DC81A8C527C42BAA02006F7992A7526F620A526FEC1D5258EC1B5F
:209152005264EC095269EC076F6C5275EC145278EC126F6706C590019B00FF58ED11BE0357
:209162000201A3C507A6564100ABA9A4A9C506D4A3C46F5806C590019B00FF58ECF1BE04E3
:209172006FF092A7526F620A526FEC215258EC1F5264EC095269EC076F445275EC185278F4
:20918200EC166F3F06C590019B00FF58EC03B6026F02B601BE0106A607A71EA606C503A6AF
:209192008AA91EC506C4568F568F6F2C06C590019B00FF58EC03BE026F02BE010201A3C5E0
:2091A20007A6564100ABA9A40200A9C56FC292A7526F620A526FEC975258EC955264EC0950
:2091B2005269EC076F0E5275EC8E5278ED0A6F8B8AC53B01DC81A8C585C4568F568F1EA64A
:2091C20006A60006B2BDAABDA2BDFE0A565E1E488BA4925396455BA50648A94A565EED08AB
:2091D2008AC1020128C40030564100C16F345CA30648A34A767E9215A944A9A53B011EA608
:2091E2001E42AAAB85A3568F568FA9A200FE96FAA9A7A34A565D00A7A9A092455258ED0996
:2091F200563328AB0010A9A93AAB565700A9A9A03AA98F3E9ACC560100A492C48AC1565EB5
:2092020096C40201564100C1A04AC248A34A0648565EEDCE8AC1767E994FFE8A82BE86BEC6
:209212008BBE190100061EA692A4A9A5FE045208EC045210EC066F0906A6A0AB56926F36EF
:2092220006A6A0AB56936F3276C0FFFFA0AB06A6C3442B422B4100FE95E75200630827A59D
:209232000EAB2BAAF60F1FA427A96F1402001901A0AB1E442B422B4106A600FE95E7520059
:20924200630B3B0185A48AA90200A0ABF61F561700A402006F0B3B0185A4568F568FA944FB
:209252001E4206A6A0AB767E9669FE8400068F3FFFFF8F7FFFFFA8A90FA5ED04D400BE00CA
:209262006F078F3FFFFF88C4020207A48AA992A6767E856800068F7E9B4058C49A01C4A555
:209272003B0194A085A9560100A643C6EF0FA8A9BE010DA68AA958C49A01C4A53B0194A0B4
:2092820085A9560100A643C6EEF392A02BAC522DEC05522BB600ED086F02B601A8A9BE01DE
:209292000DA68AA958C4C4A59A0194A085A9560100A642C6EF14310A92ABBE0194A09CD075
:2092A2002DA9A8A90DA68AA958C49A01C4A53B0194A085A9560100A642C6EEEE93A7EC04D6
:2092B20092ACFF5C2DA992AC0006B2BDAABDA2BDFE1028AC0014964B8BA5C4D406C4865A6B
:2092C2008F0085801E46A84EC24428C40030064456100A4B18A907FF8F0007FF9B000FA4CD
:2092D2002B4CED1B064456088000ED0D28AAFFFF28ABFFFF28A87FEF28A9FFFFA9461E44DC
:2092E2002BC26F2428AAFFFF28ABFFFF28A8FFEF28A9FFFFA9461E445CAD8F7E9B10DC864A
:2092F200767E952AD30052006302D3015CAD7BC28F7E9B10DC86767E952A520063075CAD73
:2093020088ADDC86DE86767E95545CAD8F7E9B14DC86767E952A520065125CAD88AD8F7E85
:209312009B18DC86DE86767E88725CAD0A4C8F7E9B14DC86767E952A520062F05CAD8F7EEA
:209322009B10DC86767E952A5200EC1A5CAD8F7E9B1CDC86767E952A520063125CAD88AD2C
:209332008F7E9B18DC86DE86767E88FD5CAD0B4C8F7E9B10DC86767E952A5200EDE8C44EB6
:209342005CAD020107A6DC861E50767E957E8A50767E970E864E3B0185A9560100A293A995
:20935200954C97C1934B55A9DA0165299FA9974B924B652A9CFF5BA95CADDC86767E957ED6
:2093620088ADDE8A767E95B988AD5DAD5CADDE86DD8ADC86767E89805CAD88AD8F7E9B189C
:20937200DC86DE86767E88FD5CADDC86767E955D9B3095A99782000BFFE16F06864E854B25
:20938200560100A2DA01928A523564158AA2DC810AC492C4523A640828C40030928C9C015F
:20939200523A96C463FA064E0FA4ED052B8A0AC18A4E6F032BC28A50FE9082BE86BE8BBE93
:2093A2000006B2BDAABDA2BDFE1028AC0014964B8BA5C4D406C4865A8F0081801E46A84E3D
:2093B200C24428C40030064456100A4B18A907FF8F0007FF9B000FA42B4CED1B06445608A3
:2093C2008000ED0D28AAFFFF28ABFFFF28A87FEF28A9FFFFA9461E442BC26F2428AAFFFFC2
:2093D20028ABFFFF28A8FFEF28A9FFFFA9461E445CAD8F7E9B30DC86767E952AD3005200B1
:2093E2006302D3015CAD7BC28F7E9B30DC86767E952A520063075CAD88ADDC86DE86767E4B
:2093F20095545CAD8F7E9B34DC86767E952A520065125CAD88AD8F7E9B38DC86DE86767ED7
:2094020088725CAD0A4C8F7E9B34DC86767E952A520062F05CAD8F7E9B30DC86767E952A66
:209412005200EC1A5CAD8F7E9B3CDC86767E952A520063125CAD88AD8F7E9B38DC86DE8635
:20942200767E88FD5CAD0B4C8F7E9B30DC86767E952A5200EDE8C44E5CAD020107A6DC8610
:209432001E50767E957E8A50767E970E864E3B0185A9560100A2934C94A896C1924B94A870
:20944200DA01964B65249CFF5BA95CADDC86767E957E88ADDE8A767E95B988AD5DAD5CAD8D
:20945200DE86DD8ADC86767E89805CAD88AD8F7E9B38DC86DE86767E88FD5CADDC86767E14
:20946200955D9B3095A99782000BFFE1928A523564118AA2DC810AC492C4523A640828C442
:209472000030928C9C01523A96C463FA064E0FA4EC042BC28A506F0C064E0FA268068F0071
:209482008180A84E2BCC6F022BC20AC18A4EFE9082BE86BE8BBE0006B2BDAABDA2BDFE0245
:2094920006A6FFE100845FDCA3C406D4FF90FFD4974106D456AA1AA8800056911BA700002F
:2094A200630256588EA9A9A11B410000600456A261726F7D1B4107FF61745FDDA3C506D5E9
:2094B200FF90FFD4974206D556AA1AA8800056911BA700006302565886A9A9A31B420000AE
:2094C200600456A2615B6F631B4207FF615A93419F42630AB2AB8BA3A9A33AAB8EA2A9A229
:2094D2005D427D41FF5D2DA83AA9B2AB1BAC0036630F1BAC00006108AAA9A2AB562C86A9BC
:2094E200A9A3B2AB3AA9565700A3564000A2565E565E612A97A7565E565E630256585C410D
:2094F2005635565221A35635565222A893A49FAC9FA397A42AA88DC00200565700A3D30023
:20950200564000A3630418A87FFF0AA45699910F0AA4651D1BA407FF631418A7800099A743
:2095120093A4FF93CBA7A9C61ED6FE8282BE86BE8BBE000606D5A3C56FF706D4A3C46FF4FB
:209522005633CDA780001AA87FF06FEE56336FEC06D428A700010FD556B202A756B400A74A
:20953200600806C40FC556B602A756B800A7611906D4FF901BA8FFE0680C06D5FF901BA883
:20954200FFE0680706D4FFDE92DDFFCE9EA800060BA73B0185DC92A7CFDD6302FF5C000682
:209552009A00000606D4A3C4565E61031CA880001ED6A9C600065EDCA3C406D4FF90FFD476
:2095620097A506D456AA1AA8800008A5FC0164139A0F9EA565092DA9FF6392A81BA60000E3
:209572006302FF5C000628A97FFF93A663FC28A980006FF99A006FF75EDCA3C406D4FF9069
:20958200FFD497A506D456AA1AA8800008A5FC0164112FA89B1F9FA565092DA893AA5622B2
:209592001BA600006302FF540006560200A6FF576FFC02006FFAFF5A06A66111A9A997A50B
:2095A2003100569691FF611253FF610A08A8038056A318A58000CBA5A9C61ED60006563301
:2095B200CDA580001AA87FF06FF856336FF6FF5A06A66117A9A9611697A58F00041D630686
:2095C2006B012902FF546A020AA4F61FFF743100569D93A456A318A58000CBA5A9C61ED699
:2095D200000656336FFC28ACFFFF0F426009A9A90F4456B100AC56B601AC92AC762056B107
:2095E20000AC56B201AC92AC762028ACFFFF0F426003A9A90F4456B100AC56B601AC92AC5F
:2095F2007620D500A0BDA0BDA0BDA0BDA0BDA0BD804FF3A72902565E565E630256588AA97E
:20960200A9A5A3520650630256581E4AA94C0FA46003A9A90FA5610F6613064A6113A0AB2B
:20961200A8A9767E96C40642A3444FA76C025658FE8C000628AB00012BAA02006FF756332E
:209622006FF80200A8ABF61F5617004CA9A4A0ABF61F5617004CA8A96FE9D500A0BDA0BD00
:20963200A0BDA0BDA0BDA0BD80A82902565E565E630256588AA9A9A5A352065063025658F7
:209642001E4AA94C0FA46003A9A90FA56112660E064A6112A0ABA8A9767E96C40646A348C4
:209652004FA76C025658FE8C0006A8A9A0AB6FF95633FE8C00060200A8ABF61F5617004C16
:20966200A0ABF61F5617004CFF5A02006FEAD500A0BDA0BDA0BDA0BDA0BDA0BD8AA9A9A597
:209672000F506003A9A90F52610F68130650611306501E4A06521E4CA8A9767E96C4064247
:20968200A344FE8C000628AB00012BAA02006FFA56336FF80200A8ABF61F56170052A9A4D7
:20969200A0ABF61F56170052A8A96FECD500A0BDA0BDA0BDA0BDA0BDA0BD8AA9A9A50F500A
:2096A2006003A9A90F526111680E0650611006501E4A06521E4CA8A9767E96C40646A3488D
:2096B200FE8C0006A8A96FFD56336FFB0200A8ABF61F56170052A0ABF61F56170052FF5AB7
:2096C20002006FEFD03F565E565E640E5635565221A55635565222A893A09FAC9FA597A050
:2096D2002AA856A0D88156A08AA9A9A5064AFF531E4AFF5A0648FF531E480F4C6003A9A967
:2096E2000F4E680A0648565D004E5654004C1E48A94A3B086F03064829080646FF531E46C5
:2096F2000644FF531E44A8A9A0AB0008FFDE0006761D1EBD874456050048A9A456470048C5
:209702008742A9A95665004807AB87465665004407ABA8ABFE847620B2BDFF58D500FE16DF
:209712006302D50158A55DADFF56DD832BC51EA6020A1E4206A600FE99939C30968D020A4F
:209722001E4206A600FE99841EA6FF58EDF292A0EC03288D002D59ADD9960EA103A509141A
:209732008BA9767E8A4DD98192A1FE968BBE000627A992A8650E9CFFB60188A993C592AB13
:20974200978454A8EC07A0A90DA783A9000EFFF8D4000006761F0203C53C3E678F3FA00047
:2097520092A48F400001761F02039001A036ED081CA5FFFF0201A83489A5EC0C6F0E0201B7
:2097620007A41E348AA9A0A919011E3692A59001ED0402015641003602028F7FFFFF03362E
:209772001EC4A0D4A8382B32761F0203C53A3E670006B2BDFF581EA6AABD86A9EC3106A617
:209782009001EC04020107A686A9761F0203C53C3E67761F02039232EC03767E974C761F6E
:2097920002038B348F3FFFFFA8A90FA1EC15BE00A3C1A9A9FF541EA7AAA90FA7650A8AA1F6
:2097A200C4A18BD48F3FFFFFA8A90FA1EDF26F04A8A90FA1ED07761F0203C53A3E6702008F
:2097B2006F2AAAA909040FA7680D06A6ED0606D1761F02031E346F048AA606D11ED4C3C121
:2097C2006F14B2A907A2090283A9AAA907AB09021EC506A6AAC1ED05761F0203A0346F03ED
:2097D2008AA6A0D406D11ED5761F0203C53A3E67020207A186BE8AA98BBE0006A8A9B2BD99
:2097E2008BA4EC4A761F0203C53C3E6783A1761F02038A34DD82A0A90FA46603B6006F0657
:2097F200C5A48AD4A0A90FA466FCA3C5A0A9BE0207AB0DA60FA4EC03A8D56F0C06D41ED5F5
:2098020006C48AA5FF5407C48AA509021EC48AA5A3C406A7EC168AA706A703C4D4020DA4A2
:209812000FA5EC048AA7A0D46F0F8AA506D48AA71ED48AA7A9A9FF5407C48AA719026F07E0
:20982200761F0203A0348AA5A9A9FF541EC4761F0203C53A3E678BBE0006B2BDAABDA2BD40
:20983200FE02520086A49641ED078AA2767E97E0D400FFEF00A3AAA9ED073B018541767E96
:20984200977BFFEF009B92419001EC020A418BA2761F0203AAA9C53CD98207C182A93E67C0
:209852003B018541C5C11EA68541FF5A06A70FAB6311761F0203063807360FA3696A8AC3C9
:20986200A8A96267A8A9630606A703A409020FAB6860761F02038A34B2A90FA46907C5A4F2
:209872008AD4B2A90FA466FC6F02B600AAA9A3C107AB0FA4EC1CA9A903A6FF5A02040FABA9
:20988200664283A23B018541560100A5A9A91902FF5C85A91EC5A8D506A7C2C1ED05761FEE
:209892000203A0346F308AA7A0D46F2D83C4565D00A5565D00A602020FAB631683D48AA24B
:2098A2003B018541560100A492ABFF5C85A91EC4A0D406A7C2C1ED05761F0203A8346F1373
:2098B20083A7A8D56F1006A7ED0606D4761F02031E346F0406D48AA71ED4A0A9FF5407C136
:2098C20009021EC1761F0203C53A3E678AA26F15761F0203C53A3E673B018541767E977B68
:2098D20082A4A8A9EC0983A28AA306C1767E8A4D8AA2767E97E08AA3FE8282BE86BE8BBE15
:2098E2000006B2BDC4462DA93B0193A612A859A985A9767E977BA8A9C5A4EC0B8AA792A197
:2098F2009CFF1BA9FFFFEC0588A92B84000EFFFF8BBE8AA70006D4000006761F0203B2BDB9
:20990200C53C3E67D100761F020392328334ED0E8F3FFFFFA8A90FA5EC093B0185A103C5CE
:2099120083D559A9A8A90FA5EDF9761F0203C53A3E6792A18BBE0006761F0203B2BDC53C26
:209922003E67D100761F020392328334ED108F3FFFFFA8A90FA5EC0BC4C53B0185A10FA635
:20993200650259A683D5A8A90FA5EDF7761F0203C53A3E6792A18BBEFF5C0006C4A4B60134
:20994200DE81DD81A0A90DA783A906A60DA71EA627C592AB3FC6EDF700060200D5011901F1
:209952001EA6DC81A8A90DA58AA9DE0192C4EDFB06A60006FF581EACC4A5EC2483A4D0013D
:20996200DD81DE8106A60DA01EA6A0A90DA01EA727C683A992AB3FC7EC05ABA919011EACCB
:20997200EDF2ABA6ABA919011EAC02010FA6670AA0A9BE010DA683A9ABA919012BC51EAC35
:20998200EDF8000629022904565FFF5A0642565F1E420200F61F5617004206AB56322902ED
:20999200762029022904565FFF5A0642FF561E420200F61F56170042563229027620FF5A54
:1899A2000200F61F56170042A9A97620FF5A0200F61F5617004276204A
:2099AE0081B9003E81B9003E81B9003E81B9003E81B9003E81B9003E81B9003E81B9003ED9
:2099BE0081B9003E81B9003E81B9003E81B9003E81B9003E81B9003E81C5003E826C003E09
:2099CE0081B3003E8231003E81BF003E81CB003E814D003E8147003E8141003E813B003E02
:2099DE008135003E812F003E8129003E8123003E811D003E815F003E8159003E8153003E99
:2099EE0081B9003E81B9003E8106003E8111003E810B003E8272003E81B9003E8117003E8A
:2099FE008225003E8219003E820D003E8201003E81F5003E81E9003E8106003E8106003E17
:209A0E00822B003E821F003E8213003E8207003E81FB003E81EF003E8106003E8106003EE2
:209A1E00824E003E8248003E8242003E823C003E8106003E8106003E8106003E8106003E00
:209A2E0081E3003E81DD003E8106003E8106003E8106003E8106003E8106003E8106003E3C
:209A3E00818F003E8177003E8189003E8171003E8183003E816B003E817D003E8165003E40
:209A4E008106003E8106003E8106003E8106003E8106003E8106003E8106003E8106003ED0
:209A5E0081D7003E81D1003E8106003E8106003E8106003E8106003E8106003E8106003E24
:209A6E0081AD003E81A1003E81A7003E819B003E8266003E825A003E8260003E8254003ED8
:209A7E008106003E8106003E8106003E8106003E8106003E8106003E8106003E8106003EA0
:209A8E008106003E8106003E8106003E8106003E8106003E8106003E8106003E8106003E90
:209A9E008106003E8106003E8106003E8106003E8106003E8106003E8106003E8106003E80
:209AAE000000000000000000FFFFFFFFFFFF7FEFFFFFFFFFFFFFFFEF0000000000003FF019
:209ABE0000000000000040240028006E0075006C006C002900000000002500000030003192
:209ACE00003200330034003500360037003800390061006200630064006500660030003116
:209ADE00003200330034003500360037003800390041004200430044004500460000000027
:209AEE0000250075002000200020002000250075002000200020002000250075002000204A
:209AFE0000200020002500750020002000200020002500750020002000200020002500753A
:209B0E00000A000000000000000000000000FFC0FFFF41DF000000000000402400000000EC
:209B1E0000003FF000000000000040140000000000004022000000000000402400000000DE
:209B2E004000408F00000000000000000000FFC0FFFF41DF000000000000402400000000C7
:209B3E0000003FF00000002000200020002000200020002000200020002800280028002818
:209B4E000028002000200020002000200020002000200020002000200020002000200020EF
:209B5E0000200020002000880010001000100010001000100010001000100010001000103F
:209B6E000010001000100044004400440044004400440044004400440044001000100010CF
:209B7E000010001000100010004100410041004100410041000100010001000100010001FB
:209B8E00000100010001000100010001000100010001000100010001000100010010001089
:209B9E000010001000100010004200420042004200420042000200020002000200020002CF
:209BAE0000020002000200020002000200020002000200020002000200020002001000105B
:209BBE00001000100020000000000000000000000000000000000000000000000000000047
:209BCE00000000000000000000000000000000000000000000000000000000000000000077
:209BDE00000000000000000000000000000000000000000000000000000000000000000067
:209BEE00000000000000000000000000000000000000000000000000000000000000000057
:209BFE00000000000000000000000000000000000000000000000000000000000000000047
:209C0E00000000000000000000000000000000000000000000000000000000000000000036
:209C1E00000000000000000000000000000000000000000000000000000000000000000026
:209C2E00000000000000000000000000000000000000000000000000000000000000000016
:209C3E00000000000000000000000000000000000000000000000000000000000000000006
:209C4E000000000000000000000000000000000000000000000000000000000000000000F6
:209C5E000000000000000000000000000000000000000000000000000000000000000000E6
:209C6E000000000000000000000000000000000000000000000000000000000000000000D6
:209C7E000000000000000000000000000000000000000000000000000000000000000000C6
:209C8E000000000000000000000000000000000000000000000000000000000000000000B6
:209C9E000000000000000000000000000000000000000000000000000000000000000000A6
:209CAE00000000000000000000000000000000000000000000000000000000000000000096
:209CBE00000000000000000000000000000000000000000000000000000000000000000086
:209CCE00000000000000000000000000000000000000000000000000000000000000000076
:209CDE00000000000000000000000000000000000000000000000000000000000000000066
:209CEE00000000000000000000000000000000000000000000000000000000000000000056
:209CFE00000000000000000000000000000000000000000000000000000000000000000046
:209D0E00000000000000000000000000000000000000000000000000000000000000000035
:209D1E00000000000000000000000000000000000000000000000000000000000000000025
:209D2E00000000000000000000000000000000000000000000000000000000000000000015
:069D3E000000000000001F
:209D4100000000000000000000000000000000000000000000000000000000000000000002
:209D51000000000000000000000000000000000000000000000000000000000000000000F2
:209D61000000000000000000000000000000000000000000000000000000000000000000E2
:209D71000000000000000000000000000000000000000000000000000000000000000000D2
:209D81000000000000000000000000000000000000000000000000000000000000000000C2
:209D91000000000000000000000000000000000000000000000000000000000000000000B2
:209DA1000000000000000000000000000000000000000000000000000000000000000000A2
:209DB100000000000000000000000000000000000000000000000000000000000000000092
:209DC100000000000000000000000000000000000000000000000000000000000000000082
:209DD100000000000000000000000000000000000000000000000000000000000000000072
:209DE1000000000000000000000000000000007B00000000000000700000007000000014F3
:209DF100007F0014007F00140024002A007F002A00120023001300080064006200050022F8
:209E010000550049003600000000006000500000000000410022001C00000000001C002200
:209E11000041000000140008003E0008001400080008003E00080008000000000006000511
:209E21000000000800080008000800080000000000030003000000200010000800040002B5
:209E3100003E005100490045003E00000001007F00210000003100490045004300210046AC
:209E410000690051004100420004007F00240014000C004E005100510051007200060049FB
:209E510000490029001E0070004800470040004000360049004900490036003C004A0049CC
:209E610000490030000000000036003600000000000000360035000000000041002200141A
:209E71000008001400140014001400140008001400220041000000300048004400450020C5
:209E81000032004900790041003E003F004400440044003F0036004900490049007F002252
:209E9100004100410041003E001C002200410041007F0041004900490049007F004000484E
:209EA10000480048007F002F004900490041003E007F000800080008007F00000041007F7C
:209EB100004100000040007E0041000100020041002200140008007F00010001000100014C
:209EC100007F007F002000180020007F007F000400080010007F003E004100410041003E53
:209ED1000030004800480048007F003D004200450041003E0031004A004C0048007F0046D3
:209EE100004900490049003100400040007F00400040007E000100010001007E007C000259
:209EF10000010002007C007E0001000E0001007E0063001400080014006300700008000751
:209F01000008007000610051004900450043000000410041007F000000540034001F003469
:209F110000540000007F004100410000001000200040002000100001000100010001000136
:209F210000000010002000400000000F0015001500150002000E001100110009007F0002A6
:209F3100001100110011000E007F000900110011000E000C001500150015000E002000405E
:209F41000048003F0008003E0025002500250018000F001000100008007F00000001005F96
:209F5100001100000000005E00110001000200000011000A0004007F00000001007F00410E
:209F61000000000F0010000C0010001F000F001000100008001F000E001100110011000EE1
:209F71000008001400140014001F001F000C0014001400080008001000100008001F0002C1
:209F81000015001500150009000200010011007E0010001F000200010001001E001C000277
:209F910000010002001C001E0001000E0001001E0011000A0004000A0011001E00050005E3
:209FA10000050018001100190015001300110000004100360008000000000000007F000022
:209FB100000000000008003600410000000000000000000000000000000000000000000011
:209FC100FFFF800D00000000FFFF800E00000000FFFF800F00000000FFFF8100000000005D
:209FD100FFFE8102000000000000FFFE8104000000000000FFFE80FA00008AC5003EFFFE6D
:129FE10080FC00008AC5003EFFFF80F2000000010000F4
:209FEA0076228F000A801AC400011AD40003CCF4F3FF761F002A1AA903009606CC06FFF042
:209FFA0050039606CCFCFFE0500596071AE401FF1AEC01FF761AF60A7700FF69000619012C
:06A00A0056C3FFFF000633
:00000001FF
