:02000004003EBC
:04800000007E8D9DD4
:20800200761F01C4280001508F00710018C4FFBF2B0118CCF7FF1801FBFF2B022B1C280339
:208012004567280401232805BA982806FEDC281800E428A922DE9B027640061F0006CCC4C8
:208022003FFF1AA9800096C418C4DFFF18C4E3FF18C4FC7F18C4FFBF1AC400301AC4000806
:2080320018C4FFFB18C4FFFC1AFC00101AFC0040D00BCC94FFFE50029694CC94FFDF5010B3
:208042009694D00CCC94FFFE50029694CC94FDFF1AA901009694020F07A483A918C5FFFC35
:20805200021E07A483A918C5FFFED0122B94D0142894000FD0152B94D0192B94D01A2B94F8
:20806200D0092B94D00A2B9428EC0DAC0006D0142B94D0152894900AD0172B948F40C35094
:20807200D010A094021607A483A918C57FFFD016CC94FFCF50409694CC94FFF050049694F5
:20808200021607A483A91AC58000D0182B9402001ED428AAFFFF28ABFFFFA9E4021507A405
:208092008AA91AC4008000068F000C00761F0206A83028AAFFFF28ABFFFF761F0030A90216
:2080A2002B062B071AE400101A0400200200761F02061E328F000C08A820761F0030A90A3D
:2080B2002B0E2B0F1AE400101A0C00200200761F02061E220006B2BDFE028BA4C4481EE159
:2080C200C2F1C242767E8F89767E8FE38AC11ED48AC12BF48AC12BFC8AC11AE400108AC1B8
:2080D2001AE400208AC11AE404008AC11AE408008AC11AE4400002001ED1FE828BBE000689
:2080E200FE023B10FF69767E8096761F00331A2200407622761F00358F3E8B34A80C761A4B
:2080F20076230001762320009A0028A841201E42FF698F0081B028A842C8767E80BD291084
:20810200FE82FF690006761B2942561676177602761B29425616762556CF0000761B2942DE
:208112005616762556CF0000761B29425616762556CF0000761B29425616762556CF0000D1
:20812200761B29425616762556CF0000761B29425616762556CF0000761B294256167625EA
:2081320056CF0000761B29425616762556CF0000761B29425616762556CF0000761B2942BC
:208142005616762556CF0000761B29425616762556CF0000761B29425616762556CF0000A1
:20815200761B29425616762556CF0000761B29425616762556CF0000761B294256167625BA
:2081620056CF0000761B29425616762556CF0000761B29425616762556CF0000761B29428C
:208172005616762556CF0000761B29425616762556CF0000761B29425616762556CF000071
:20818200761B29425616762556CF0000761B29425616762556CF0000761B2942561676258A
:2081920056CF0000761B29425616762556CF0000761B29425616762556CF0000761B29425C
:2081A2005616762556CF0000761B29425616762556CF0000761B29425616762556CF000041
:2081B200761B29425616762556CF0000761B29425616762556CF0000761B2942561676255A
:2081C20056CF0000761B29425616762556CF0000761B29425616762556CF0000761B29422C
:2081D2005616762556CF0000761B29425616762556CF0000761B29425616762556CF000011
:2081E200761B29425616762556CF0000761B29425616762556CF0000761B2942561676252A
:2081F20056CF0000761B29425616762556CF0000761B29425616762556CF0000761B2942FC
:208202005616762556CF0000761B29425616762556CF0000761B29425616762556CF0000E0
:20821200761B29425616762556CF0000761B29425616762556CF0000761B294256167625F9
:2082220056CF0000761B29425616762556CF0000761B29425616762556CF0000761B2942CB
:208232005616762556CF0000761B2942561676177602761B29425616762556CF0000761BDA
:2082420029425616762556CF0000761B29425616762556CF0000761B29425616762556CF35
:208252000000761B29425616762556CF0000761B29425616762556CF0000761B2942561654
:20826200762556CF0000761B29425616762556CF0000761B29425616762556CF0000761B5B
:2082720029425616762556CF000076220200761F01BE1E0628AA050A28AB0015A9080200C7
:208282001E1628AA2CFD28AB3FFFA90A02071E1A28AACCCF28ABFFFFA90C28AAFFFFA91C20
:2082920002001E021E041E12761AFF690006C444A0A90FA456C9000C03A4190183A9928428
:2082A20096860200DD8119010FA5EDFA00063B10761F00331820FFFE2B222B242B262B28FD
:2082B2002B2A2B2C2B2E2B302B322B342B362B382B232B252B272B292B2B2B2D2B2F2B3124
:2082C2002B332B352B372B39FF690006761F00331A2000012821FFFF2910FF690006762221
:2082D2008F7E9F8CBE7F8F000D0006851E84000EFFFE761A761F00331A200001FF69000642
:2082E200761F01C14714EFFD9619000692C4EC14520AED07761F01C14714EFFD2819000D97
:2082F200761F01C14714EFFD9619D501A8A90DA58AA992C4EDEE0006A2BDFE025CADDC8810
:20830200A84283488DC086008AA3767E90AC8AA3767E82E8FE8282BE0006761F01C1461573
:20831200EFFD92170006761F01C128100007281100032B122813001A8F00705018E4FFFD05
:2083220018E4FFFE281AA000281C40001ACC00200006560308A9D0088F00704096941AD497
:208332000020761F01C14602EFFDCC0700FF0006B2BDA2BD8DC06FC01ADB0008FF2E000331
:20834200767E85BB1AEB0008FF2E0003767E85BB761F01C11A0000809AD7767E832B9A00D8
:20835200767E832B59A9761F01BF1A030008FF2E0003767E85BBCCA10008ECDF82BE8BBEC0
:208362000006B2BDAABDA2BDFE0459A986A47D415BA8767E833A8F006FC0A8441ADC000878
:20837200FF2E0003767E85BB8A441AEC0008FF2E0003767E85BB761F01C11A0000809A823A
:20838200767E832B92A1FFC69003767E832B560301A193A3FFD790FF9101CBA992A8767E42
:20839200832BCCA300FF767E832B9241EC0B9CFF5DA9D100CC9A00FF767E832BD901000DE3
:2083A200FFFB761F01BF1A030008FF2E0003767E85BBFE8482BE86BE8BBE0006B2BDAABDB8
:2083B200A2BDFE0459A986A47D415BA8767E833A8F006FC0A8441ADC0008FF2E0003767EE0
:2083C20085BB8A441AEC0008FF2E0003767E85BB761F01C11A0000809A82767E832B92A139
:2083D200FFC69003767E832B560301A193A3FFD790FF9101CBA992A8767E832BCCA300FFAB
:2083E200767E832B9241EC0B9CFF5DA9D100CC9A00FF767E832BD901000DFFFB761F01BF60
:2083F2001A030008FF2E0003767E85BBFE8482BE86BE8BBE0006B2BDAABDA2BDFE0459A954
:2084020086A47D415BA8767E833A8F006FC0A8441ADC0008FF2E0003767E85BB8A441AECDE
:208412000008FF2E0003767E85BB761F01C11A0000809AD2767E832B92A1FFC69003767E60
:20842200832B560301A193A3FFD790FF9101CBA992A8767E832BCCA300FF767E832B9A006A
:20843200767E832B9A00767E832B9A00767E832B9A00767E832B9241EC0B9CFF88A9D1006D
:208442009A00767E832B969AD901000EFFFB761F01BF1A030008FF2E0003767E85BBFE846C
:2084520082BE86BE8BBE0006B2BDAABDA2BDFE0459A986A47D415BA8767E833A8F006FC0A4
:20846200A8441ADC0008FF2E0003767E85BB8A441AEC0008FF2E0003767E85BB761F01C115
:208472001A0000809AD2767E832B92A1FFC69003767E832B560301A193A3FFD790FF9101ED
:20848200CBA992A8767E832BCCA300FF767E832B9A00767E832B9A00767E832B9A00767E74
:20849200832B9A00767E832B9241EC0B9CFF88A9D1009A00767E832B969AD901000EFFFB2B
:2084A200761F01BF1A030008FF2E0003767E85BBFE8482BE86BE8BBE0006761F01C1280008
:2084B20000072801001F2B022B04280A80002B0B2B0C280F001000067622761F01C0282558
:2084C2000055282500AA761AFF6900067622761F01C028290068761AFF690006761F01C055
:2084D2004311EF0276254111EF031811FFFDD0118F0070109394910F55A9EC1376221ACC0F
:2084E2000040CD21FFF0900FCAA89621761AFF69767E84C84011EFFF76221811FFBF761A0F
:2084F200FF6900067622761F01C0281A0001281B00028F407010CCC5FFFE500296C52B1CB5
:208502002B1D020C07A58AA91AC400081A1C04001A1C0100020D07A58AA91AC440001A1D8A
:2085120080001A1D00011A1D00021A1C0004761AFF690006767E84C89A0A767E84D0767E00
:2085220084F400060214D5008F008080767E9086D5008F00805A020A767E9086D5008F007F
:208532008064020A767E9086D5008F0080940214767E9086D5008F008050020A767E90864D
:20854200D5008F008046020A767E90868F00803628C401F428CC00FA28D4006428DCFF9CC6
:2085520028E4FF0628ECFE0C761F02002B0A02001E2E2B032B0B2B0C2B0D2B090006FE02B3
:208562003B10FF69767E851C767E82778F000600A8428F7EA7918F3EA76E767E82998F3F41
:20857200A000A8428F4000008F000000767E8299767E82A976260000762F0000767E82D14B
:2085820076400600767E8315767E84AF767E87498F006840767E80218F006800767E80214E
:208592008F006B40767E80698F006B00767E8069767E8002767E80E2767E82C82910FE8218
:2085A200FF690006767E8561767E8524767E87F6767E866F761F00301804FFEF767E892806
:2085B20002127640061F767E8970767E8D0856CFFFF9FF58EC05770077001901EDFDFF6985
:2085C2000006B2BDD100761F01BF4E01EE1628A90D3E9B037640061F761F01BF4E01EE067E
:2085D200B2A909018BA94E01EFFC02640FA156C3004A9A0156CF00484E00EE1628A9423E92
:2085E2009B0F7640061F761F01BF4E00EE06B2A909018BA94E00EFFC02640FA156C3003329
:2085F2009A0256CF00314F01EE1628A90D3E9B037640061F761F01BF4F01EE06B2A9090190
:208602008BA94F01EFFC02640FA156C3001C9A0356CF001A4F00EE1628A90D3E9B037640FF
:20861200061F761F01BF4F00EE06B2A909018BA94F00EFFC02640FA156C300059A0456CFC1
:2086220000039A008BBE0006FE02761F01BF4F01EE054F00EE1756CF00193B01761F02004F
:208632008F0081CA5603010C560100A406C41E42767E82FE761F02000A0C920C520556C493
:208642000005761F02002B0CFE820006FE02761F01BF4F01EE0D4F00EF1F761F0200920D8C
:20865200ED1B761F02002809000156CF00163B01761F02008F0081C05603010D560100A4F7
:2086620006C41E42767E82FE761F02000A0D920D56C500032B0DFE820006A2BDFE028DC085
:2086720081C2767E85C35200ECFD5201EC385202EC1B5203EC055204EC4D56CFFFF428A99E
:208682000D3E9B037640061F761F0200920BEC08920B5201EDE7767E864856CFFFE4767E6A
:20869200862656CFFFE028A90D3E9B037640061F8AA33B01761F02005603010B560100A423
:2086A20006C41E42767E82FE761F02000B0B920B56C3FFC9280B000256CFFFC528A90D3EB5
:2086B2009B037640061F8AA33B01761F02005603010B560100A406C41E42767E82FE761F9C
:2086C20002000A0B920B520356C4FFAD2B0B56CFFFAA28A90D3E9B037640061F56CFFFA369
:2086D200B2BDAABDA2BDFE145AA85300EC3B88ADDE94767E90955CAD88AD8F7EA098DC9412
:2086E200DE90767E8EBE5CAD88AD8F7EA094DC90DE8C767E8E335CAD88AD8F7EA090DC8CDD
:2086F200DE88767E8F415CAD88AD8F7EA08CDC88DE84767E8E335CADDC84767E8F6E8DC0A5
:208702006FC08BA992A29CFF5AA9B2A97640061F1AD31000B2A97640061F1AE31000000AA2
:20871200FFF6FE9482BE86BE8BBE000680A98F406FC01AED04001ADD0080020A07A58AA959
:208722001AC40001761F01BF1A030400020C07A58AA91AC40001BE079B071A0504009A01F1
:208732002DA8FF66CEA7ED051A05004056CF00041A0300401A0304009DFF000EFFF0020ADB
:2087420007A58AA91AC400011AED040000068F406FC0020C07A58AA91AC400011AED040073
:20875200761F01BF1A0500401A0500809A81767E87189A4D767E87180006B2BD83A476C0BA
:208762006FC01AEF04001AEF0080020A07A71EA61AC600011ADF0400020C07A71EA61AC676
:20877200000176FEA33F3B012BABD407D104C4A72DC5350581A1560100A62FC69A06BE06BF
:20878200D0062DA974A093AAFF6591012DA0FF6799AB9CFF000EFFF6BE079A078D006FC5A8
:208792001AC004009B012DA9FF67CFABED051AC0004056CF0006761F01BF1A0300408D0021
:2087A2006FC01AD804009CFF000EFFEA2BAB92A19CFF59A956C3FFCDA0A9BE010DA683A98E
:2087B200000CFFC6020A07A08AA91AC400011AE804008BBE0006A2BDFE025CADDC88A84206
:2087C20083488DC081D48AA3767E90AC8AA3767E875FFE8282BE0006B2BD8BA48AA1021A1B
:2087D200D500767E908628AA0FA02BABA9C102001ED1D008FF2F0AF01E9102001EE11EF137
:2087E200D00A1E91D00C1E91D00E8F020000A891D0101E91D0121E91D0161E91D0182B9162
:2087F200D0141E918BBE00068F0080DA767E87CE8F0080C0767E87CE0200761F02001E3054
:20880200761F02001E2C0006B2BDFE028BA4D00AC491D00806A60F9156C4006EC2F18F01B3
:20881200B22DA8ACD00C560500C1566300C156AE1E911EA73B0106A6FF4A1EAC560500AC27
:20882200566300AC568506A7FF4A564100ABA9A9767EA64DD00AFF3A1E918F00051E87C1C9
:20883200560500A4566300A456AEFF361EA61ED1C242FF2F0200767EA6061EA61ED18F02C6
:208842008F5C87A6560500A487A6566300A456A71EA61ED183F1D00AC591A0A903A7FF36F9
:208852001EAC560500A61EAC566300A6D01256A71E918F030D40A8AC560500A9566300A9EB
:208862005687D00EA9AC560500915663009128AC001156AED01656101E91D01402001E9137
:20887200D008C49106A70FA656C2006ED00AC29156CF006AC2F18F01B22DA8ACD00C560568
:2088820000C1566300C156AE1E911EA73B0106A6FF4A1EAC560500AC566300AC568506A734
:20889200FF4A07AB767EA64DD00AFF3A1E918F00051E87C1560500A4566300A456AEFF3693
:2088A2001EA61ED1C242FF2F0200767EA6061EA61ED18F028F5C87A6560500A487A65663EE
:2088B20000A456A71EA61ED1D00AC59183F106A703A5FF361EAC560500A61EAC566300A630
:2088C200D01256A71E918F030D40A8AC560500A9566300A95687D00EA9AC560500915663BA
:2088D200009128AC001156AED01656101E91D01402001E91D008C49106A70FA656C40004CF
:2088E200D00AC2918F0080DAA8A90FA1ED058F00803256CF00048F0080340201A0AC560516
:2088F20000A9A0AC566300A956AE1EC4FE828BBE000608AD01005CAD08A4FF008F7EA23F02
:20890200FF280001767E90665CAD08A4FF005DA476808064D40976C0805A92C790FF9685C4
:208912009287FFC7968592C690FF96859286FFC79685000CFFF45CAD8F400100020108A4C9
:20892200FF00767E83B008ADFF00000608AD01005CAD08A4FF00D500FF280001767E9086E4
:208932005CAD8F400100020108A4FF00767E84565CAD08A4FF005DA47680805A76C0806431
:20894200D409C68596C656030885CAC69686C68596C756030885CAC79687000CFFF408AD0F
:20895200FF000006FE0276228F3E8B34761F0035A80C76230001761F00331A2200409A00E6
:2089620028A84100FF691E428F0081B028A842C8767E80BD761AFE82FF690006B2BDA2BD05
:20897200FE368F40809428AC001106E5561080A906F5D008561093A995A788A8069556108D
:2089820093A995A6D00A80A80695561093A995A7D00C88A80695561093A995A680A8D00E59
:208992000695561094A7967356C1011E88AD761F02009236DE8A767E900C5CAD88AD8F7E73
:2089A200A136DC8ADE86767E8EBE5CADDC86767E8F4F8DC08036761F02021EAC3B010618D7
:2089B200FF49560500A9566300A9568688ADA9A9FF468BA9DE9292CB767E900C88AD5CAD80
:2089C200DE8EDC928F7EA136767E8EBE5CADDC8E767E8F4F761F02021EAC3B01061AFF494B
:2089D200560500A9A976566300A95686A9760676FF4688AD1E7607A11E76DE9A92D3767E6E
:2089E200900C88AD5CADDE96DC9A8F7EA136767E8EBE5CADDC96767E8F4F761F02021EACDD
:2089F2003B01061CFF49560500A9566300A9C4765686A9A9FF4607A688AD8BA9DEA292DBA9
:208A0200767E900C88AD5CADDE9EDCA28F7EA136767E8EBE5CADDC9E767E8F4F761F02027A
:208A12001EAC3B01061EFF49560500A9A976566300A988AD5686A9760676FF46DEAA1E7640
:208A220007A11E7692E3767E900C88AD5CAD8F7EA136DEA6DCAA767E8EBE5CADDCA6767E08
:208A32008F4F761F02021EAC3B010620FF49560500A9566300A9C4765686A9A9FF4607A679
:208A420088AD8BA9DEB292EB767E900C88AD5CADDEAEDCB28F7EA136767E8EBE5CADDCAEFF
:208A5200767E8F4F761F02021EAC3B010622FF49560500A9566300A95686A9A9FF4607A1A2
:208A62008BA988ADDE92B2A9767E902988AD5CADDE8EDC928F7EA136767E8EBE5CADDC8E64
:208A7200767E8F4F88AD82A99273DE8A767E90955CAD88AD8F7EA136DC8ADE86767E8EBE00
:208A82005CADDC86767E8F4F1E42A2A9767EA68F3B01761F0200FF469603761F0200B22E9B
:208A9200761F02009273960A761F02009236761F0200540356C40012761F0200923B761F16
:208AA2000200540356C50010761F0200923B761F0200960356CF0008761F02009236761F7B
:208AB20002009603FEB682BE8BBE0006B2BDAABD8F40805A76C08080D00056CF001206A75D
:208AC2000DA08AA9A0A90DA08BA992C454C156C8000492C496C1D801000E0010D00092A057
:208AD200520956C600079A0A9EA088A956CF0003BE0192A69CFF88A9761F01BF4F00EEE096
:208AE2008F00806456CF001206A70DA08BA9A8A90DA086A992C154C256C8000492C196C2D9
:208AF200D801000E0010D00092A0520956C600079A0A9EA088A956CF0003BE0192A69CFF20
:208B020088A9761F01BF4F01EEE08BA5BE098D00805076C0804602008F4066661EAC56059D
:208B120000A5566300A528AC001156AE561096C002008F4033331EAC560500A5566300A53C
:208B220028AC001156AE561096C792C19E809681928794C49684000EFFE0767E88FB86BECC
:208B32008BBE0006761B0005AABDA2BDA8BDA0BDC2BDC3BDABBDFE14FF6929425616761F69
:208B420002004002EE3F9202520A56C20015520AEC33520456C2000A5204EC225200EC2CC4
:208B52005202EC2456CF00CA5206EC145208EC0C56CF00C4520CEC1A520EEC125210EC0A03
:208B6200521256C000BB761F01BF1A02100056CF00B5761F01BF1A02010056CF00AF761F88
:208B720001BF1A02080056CF00A9761F01BF1A02040056CF00A3761F01BF1A02020056CF5C
:208B8200009D761F01C41A012000761F02009202520B56C20015520BEC4A520556C2000AE0
:208B92005205EC695201EC7F5203EC7156CF00865207EC555209EC4756CF0080520DEC2BB9
:208BA200520FEC1D5211EC0F5213ED77761F01BF1A041000761F002C9209761F020296090B
:208BB20056CF006C761F01BF1A040100761F002C9208761F0202960856CF0060761F01BF32
:208BC2001A040800761F002C9207761F0202960756CF0054761F01BF1A040400761F002C2C
:208BD2009206761F0202960656CF0048761F01BF1A040200761F002C9205761F0202960548
:208BE20056CF003C761F01BF1A041000761F002C9204761F0202960456CF0030761F01BF5B
:208BF2001A040100761F002C9203761F0202960356CF0024761F01BF1A040800761F002C37
:208C02009202761F0202960256CF0018761F01BF1A040400761F002C9201761F0202960155
:208C120056CF000C761F01BF1A040200761F002C9200761F02029600761F02000A029A00DD
:208C22009302531456C800039A015200EC062B02761F01C41A014000761F020058088F00CE
:208C3200805AA854929458088F408080549556C9005858088DC0806492935808549556C77B
:208C420000465808590888AD929DDE929E93767E90955CAD88AD8F7EA13ADC92DE8E767EF9
:208C52008EBE5CADDC8E767E8F4F761F020058088A54590888AD86A9929CDE8A9E93767E1C
:208C620090955CAD88ADDC8ADE868F7EA13A767E8EBE5CADDC86767E8F4F1E42AAA9767EB9
:208C7200A5BF1EAC9BFE9A00560500A9566300A956AE761F02001EA60E088F008094FF30D4
:208C8200560100A4C2C456CF00160E088F008094FF30560100A402001EC456CF000C0E0808
:208C92008F008094FF30560100A428AA00FE2BABA9C40A089208520AED022B08761F0033F0
:208CA20028210001761F020092095201ED558F0080DA021407A483A9D016020107C51EC533
:208CB2000F9456C80020767E8806761F02000201072C1E2C9B0090078F008190FF30761F92
:208CC20001BF560100A4060018A9FF0F9B00CAC4CBCC1E00761F020002070F2CED03020057
:208CD2001E2C8F0080C0021407A483A9D016020107C51EC50F9456C80020767E8806761FEC
:208CE2000200020107301E309B0090078F008180FF30761F01BF560100A4060018A9FFF0F1
:208CF2009B00CAC4CBCC1E00761F020002070F30ED0302001E30FE9487BEC5BEC4BE83BE48
:208D02008ABE82BE86BE000376177602FE08761F0200920356C40050920356C2000C8F0297
:208D12000000761F0203A80E761F0203A82856CF008288AD9203DE88767E900C5CAD88ADE2
:208D22008F7EA13ADC88DE84767E8EBE5CADDC84767E8F4F8F0001061EAC566300A45605F0
:208D320000A456AE761F0203FF1F00041E0E88AD761F0200DE889203767E900C88AD5CADFC
:208D4200DE84DC888F7EA13A767E8EBE5CADDC84767E8F4F1EAC0290560500A9566300A926
:208D520056AE8F020000564100A4761F0203A82856CF004188AD9203DE88767E900C5CAD98
:208D620088AD8F7EA13ADC88DE84767E8EBE5CADDC84767E8F4F1EAC0290560500A956637A
:208D720000A956AE761F0203FF1F00041E0E88AD761F0200DE889203767E900C88AD5CADB7
:208D8200DE84DC888F7EA13A767E8EBE5CADDC84767E8F4F8F0001061EAC566300A4560590
:208D920000A456AE8F020000564100A4761F0203A828FE880006561F7622B9C02829006818
:208DA200761A007E8DA528AD0000FF69561F5616561A2940761F00002902761B762228A9C0
:208DB200A6D628A8003E0901611B76FEA6D629046F0F9B0024A9DF016C04290424A8DF0165
:208DC2001EA6F7A1248606A781A109011EA724A96303FF5C3B0459A9DF010009FFEC761ABA
:208DD20028A9FFFF28A8FFFF0901610E76FFFFFF6F06DF01C3BD1EA73E67C5BE24A9DF0189
:208DE20024A8FF5860F7767E9872767E8DE9B2BD761F0203AABDC53E3E67761F0204590083
:208DF20092A1EC103B018F008140560301A1560100A486A4DA82C5C23E6792A19CFF59A92E
:208E0200EDFA761F02040602EC031EA73E67761F02040604EC031EA73E6777006F00761FF4
:208E12000203B2BDC53E8BA43E67761F0204920052206407761F0203C53C3E679A016F0F92
:208E22003B018F00814056030100560100A4B2C40A00761F0203C53C3E679A008BBE0006A6
:208E32006F00B2BDAABDA2BDFE0206A661795FDD93DCF3A7A3C406D4FF90FFD4974106D45C
:208E420056AA1AA8800056998EA9A9A11B41000061721B4107FF6169A3C506D5FF90FFD45E
:208E5200974206D556AA1AA88000569986A9A9A31B420000615A1B4207FF615D93419F42B2
:208E620097A402001ED61EC628A500353AA9B2AB2B410FA26003A9A90FA3680BB2A956559C
:208E720000A38BA93AA9565400A28EA92841000106D6A3C656A01ED6A9A994411EC63AA91C
:208E8200B2AB56A08EA9A9A16103000DFFE30AA560020AA508A500092DA506D6A3C6565274
:208E9200640356A00BA456908DC00200565700A3D300564000A3630418A87FFF0AA45699E1
:208EA200910F08A403FF65171BA407FF630E18A7800099A793A4FF93CBA7A9C61ED6FE8213
:208EB20082BE86BE8BBE00065633CDA780001AA87FF06FF456336FF2B2BDAABDA2BDFE029D
:208EC20006A661715FDD93DCF3A7A3C406D4FF90FFD4974106D456AA1AA880008EA9A9A1B5
:208ED2001B410000616B1B4107FF6162A3C506D5FF90FFD4974206D556AA1AA8800086A969
:208EE200A9A31B420000615A1B4207FF61519341954297A45633A2AC564700A1A9A956054F
:208EF20000A0565300ABB2AC560500A2565300AB562800A99B00565CB2AC564700A2565303
:208F020000AB3AAC564700A3565300AB560500A2565300AB1EC6562800A99B00564700A2F4
:208F1200565300AB1ED6A3C6630356900AA48DC00200565700A3D300564000A3630418A8C2
:208F22007FFF0AA45699910F08A4FC0165171BA407FF630E18A7800099A793A4FF93CBA75F
:208F3200A9C61ED6FE8282BE86BE8BBE00065633CDA780001AA87FF06FF456336FF2FE046C
:208F420006D51E4206C51E441C4180005DADDD845DA5767E9AA7FE8400065EDCA3C406D425
:208F5200FF90FFD497A506D456AA1AA8800008A5FC0164112FA89B1F9FA565092DA893AAD1
:208F620056221BA600006302FF540006560200A6FF576FFC02006FFA06D46418A3C406D437
:208F7200FF90FFD497A506D456AA1AA8800008A5FC01640C2FA89B1F9FA564052DA893AABB
:208F820056220006020019016FFD02006FFB3ABDB2BDAABDA2BDFE022901FF5861455CA806
:208F9200917F08A800801E4293A4FFD65CA8064E613B5DA8917F08A8008059A858A993A5A0
:208FA200FFD65DA893A471A518A8010097A618A400FF18A500FFDCFF92A494A596A7642FF9
:208FB20008A9FF0162272D4236A037A1FF4F07ABFF5A2D4136A007AB37A105AB09406304C1
:208FC200FF4008A70001FF5A93A7651908A8FF016311A9A9FF46917F5BA85AA925A695A7B7
:208FD200FF960CA295A3FE8282BE86BE8BBE8EBE000693A6FF9608A87F7F6FF6FF20000065
:208FE2006FF32902FF58611B5CA8917F08A80080FF362FA893A4FFD65CA891FF08A8FF81EF
:208FF200640F08A8FFE2620F6106FF5D2DA893AA56226F0293AA48A46C02FF540006FF201D
:209002000000000628A87FFF28A9FFFF48A46CF709010006FF5A06A66118A9A9FF3F611647
:2090120097A58F00040D63066B012902FF546A020AA4F60FFF743100569D93A456A318A56C
:209022008000CBA5A9C61ED6000656336FFCFF5A06A66117A9A9611697A58F00041D630646
:209032006B012902FF546A020AA4F61FFF743100569D93A456A318A58000CBA5A9C61ED62E
:20904200000656336FFC767E906600065200C5A4EC079CFF88A992859687000EFFFE000665
:209052005200C5A4EC079CFF88A992859687000EFFFE00065200C5A4EC079CFF88A99285AE
:209062009687000EFFFE0006FF5AC5A48EA492ABEC079CFF88A992859687000EFFFE92AB54
:2090720088A9A9A90FA6EC0F93AAEC0D9DFF5CA876BFFFFE92859687000EFFFE9285968730
:20908200000CFFF88AA00006FF58FF5AC4A4DE81EC0A06A6B6010DA71EA6A9A919017DC6A4
:20909200FF5AEDF80006FF5A06A66112A9A9FF3F611031008F00040D620456900AA46F03C4
:2090A200F60FFF74569D93A456A3A9C61ED6000656336FFCFE0A064EA048A84A5CADDC8A11
:2090B200A8428F3E90C2A8448F3E90CAA8465CAD83A9DC88767E90E78A4A2BC4FE8A00063F
:2090C20083C488A996C50201560100C492A60006B2BDAABDA2BD82A486A5767E9F2D83A3F3
:2090D2008AC28BA9767E9066B2A9560100C282BE92A186BE8BBE00060006761F0203A83E14
:2090E2000006761F0203A83C0006B2BDAABDA2BDFE148BA4A04806601E5006C11E528AC130
:2090F2008262865E767E9F2D1EA6065207A6C4520FA62B491E54FFE900C02B4D2B4C284B52
:20910200FFFF2B4A8AC192C45225EC12520056C100B406C109018AA91EC1C550DC8192C4FC
:209112008AA23E670A498AC192C45225EDF05CAD020183A1DC8D560100C1767E91C35CAD22
:20912200DC88A8425CAD83A1DC8D767E91E58AC188C492A6524CEC155268EC10526CED17F9
:20913200020107A48AA91EC192C4526CEC041A4D00406F0C1A4D01006F061A4D00206F0361
:209142001A4D00808AC1DC01A8C188C402017E4A560100C192A6526EEC235273EC14761F05
:209152000203C53E3E675DAD5CADDD88DC8D767E92D2C5A383A23E67761F0203C53C72498F
:209162003E676F555CADDC88A8425CADDC89A8445CAD83A2A246DC8D767E92596F48CC4DA5
:2091720001605220EC355240EC221BA90100EC07064890019B00FF58EC326F2F0648900125
:209182009B00FF58EC0302026F02020109013B01A352564100488549568FA9528A48568FF5
:20919200A952C4528AC4C2C41ED46F21064890019B00FF58EC0302026F020201090156417D
:2091A20000488A488AC43B0185491EC46F10064890019B00FF58EC0302026F020201090198
:2091B200564100488A488AC4924996C4C4C106540FA6FFE6FF449249FE9482BE86BE8BBE73
:2091C20000066F121AC400106F0C1AC400016F091AC400026F061AC400086F031AC40004B7
:2091D2000201560100C5C4C592C6522B6208522BECF05220ECF45223ECEF6F05522DECE6D6
:2091E2005230ECE10006B2BDAABDA2BDFE0C8BA5065682A41E4C8AC192C4522AEC215AAD8C
:2091F200DA8A8AA2020AD500767E90868AC192C45230640A523A630896828AC1DC01A8C1B1
:2092020092C4523063F8934AEC085CADDC8A767E988696CB8AC192C4522EEC156F448A4CBB
:209212008AC4834CDC81A8C592C4640396CB6F05FF5C96CB1AC300018AC1DC01A8C192C442
:20922200522EED318AC1DC01A8C192C4522AEC1F5AADDA8A8AA2020AD500767E90868AC153
:2092320092C45230640A523A630896828AC1DC01A8C192C4523063F8924AEC065CADDC8AC6
:20924200767E98866F029A0096D36F0D8A4C8AC4DC81A8A98A4C1EC48AA992C496D302018B
:20925200560100C1FE8C82BE86BE8BBE0006B2BDAABDA2BDFE0AA044835406588BA41E469E
:2092620006C590019B008256FF58EC03BE026F02BE010201A3C507A6564100ABA9A4A9C5D2
:2092720006C41E48EC545AD192A2640A8A48767E9F2D1EA63B0192A285A90FA668058A48B7
:20928200767E9F2D5AA992C9567200A23B01964172C39A01944185A9767E9D59A84A064A32
:20929200EC3B9241824A54A2650F40C1EE0D9EA23B018A4A9642D52085A9767E90863B01FF
:2092A2008542560100A383488AA33B0185A2767E9F3A3B0185A2560100A3924154A265092F
:2092B20040C1EF079EA28AA3D52085A9767E90868A4A3B018541560100A42BC4C546834479
:2092C2008A4A3E678A4A767E9DBE6F06C54683448F3EA0EA3E67FE8A82BE86BE8BBE000652
:2092D200B2BDAABD86A48F008200C4A43B01A2BD85CA560100A68BA4A8A9FE0A8F00018F75
:2092E200560100A482A5D520A846C24A8AA12B47FF240019767E90868A462BC48A46DC818C
:2092F200A84692DA526462115264EC26524762085247EC2C5225EC195245EC286F3A5258E3
:20930200EC1B5263EC2D6F355270620A526F631493A99D9B5302691A5269EC0E6F2A52750B
:20931200EC0B5278EC096F258AA18F7EA0F2767E9F1EFFEF00915CAD5DADDC86A8428AA26C
:20932200A244DD87767E96B26F145CAD5DADDC86A8428AA2A244DD87767E93B26F0A83C355
:20933200DD81A0C392C596C4DC81A84618C2FFFD88C29B00CCA60002EC0B92DA5275EC0811
:20934200526FEC065278EC045258EC029B0192479748ED079248EC0C8A4628C4002B6F0492
:209352008A4628C4002D02015641004688C29247CA48ED0BCCA60004EC088A46020128C4DC
:2093620000205641004688C2CCA60001ED0FB2A90346FF10018F1EA63B0185CA0FA6640684
:20937200064A03A6090182A96F0282A183469A008AA328A80190DD01767E9D18A846C446A9
:20938200064A0FA6680B8A46064AD5200346DC810901767E90868A4A2BC444C2EF16A2A96B
:209392008AA1D53003A1767E90869247CA48ED0342C2EF11B2A90FA3EC0E92C38F00820091
:2093A20096C428C300306F08A2A98AA1D52003A1767E90868AA1FE8A82BE86BE8BBE000620
:2093B200B2BDAABDA2BDFE0E8BA4A04C865847C1835AEE2A06C590019B00FF58EC03BE0267
:2093C2006F02BE010201A3C507A688AD564100ABA9A4A9C5DE8606C41E4E767E9B9788AD1C
:2093D200064EDE8A767E9B975CAD8F7EA0D6DC8A767E9B43D30052006302D3018A4C92A36C
:2093E2007BC4ED246F2906C590019B00FF58EC03BE026F02BE010201A3C507A6564100ABFC
:2093F200A9A4A9C58AC4C4D406C45CAD1E468F7EA0D6C244DC86767E9B43D300520063023C
:20940200D3018A4C92A37BC4EC075CAD88ADDC86DE86767E9B6D92D9526562085265EC18F2
:209412005245EC165247EC066F195266EC0A5267ED155CAD83A1AA42DC86767E953E6F0E66
:209422005CAD83A1AA42DC86767E94346F075CAD83A1AA42DC86767E9478FE8E82BE86BEF2
:209432008BBE0006B2BDAABDA2BD5AAD8BA508AD019ADA8AC4D406C482C21E48C24692D134
:2094420063039A0696D15CAD5DADDC83A8425CADDD84DC88767E99BC83A45CAD08A4FE68E8
:20945200767E9F1ED00A5CAD06C31E9292D108A4FE68964183A392449B01767E95A3D00A03
:20946200C49206C30FA6D501ED0443C1EE02D5005CAD08A4FE68924493A583A3767E966A43
:2094720008ADFE6682BE86BE8BBE0006B2BDAABDA2BD5AADFE70D00ADA8A06C21E9282A567
:20948200C4D406C4D00D1E48C24692D39692D00D92926307D00D28920006D00D929296D31E
:209492005CAD8F7EA0DADC88767E9B43D100520063405CAD8F7EA0DEDC88767E9B43520012
:2094A20065125CAD8F7EA0D6DC88767E9B435200EC4D5CAD8F7EA0E2DC88767E9B435200C6
:2094B200640C6F1E28A9FFFF28AAFFFF28ABFFFF28A8FFEFA9481E4692A15CAD88AD8F7E9C
:2094C200A0E69CFFDC88DE8859A9767E8EBE5CAD8F7EA0E2DC88767E9B43520064EE5CADE2
:2094D2008F7EA0E6DC88767E9B435200630C6F1E28A9FFFF28AAFFFF28ABFFFF28A87FEFB5
:2094E200A9481E4692A15CAD88AD8F7EA0E69C01DC88DE8859A9767E8E335CAD8F7EA0E657
:2094F200DC88767E9B43520063EE5CAD5DADD00DDC83A8425CADDD849292DC88767E99BC0D
:2095020083A45CADDCEC767E9F1E92445202ED0E5CAD0B4492A19C01DCEC59A9767E9F2DC9
:209512005CADDCED560100A42BC4D00A8A9293DB92A1767E963492D3D00A5CAD9641924433
:209522008392DCEC9B01767E95A35CADDCEC767E9F2DD1015444ED0443C3EE02D100D00AF7
:209532005CAD9244839293A1DCEC767E966AFEF082BE86BE8BBE0006B2BDAABDA2BD5AAD38
:209542008BA5DA8AFE6EC4D406C482C21E46C24492D1ED039A0196D1520063039A0696D1E5
:209552005CAD5DADDC88A8425CADDD87DC86767E98D083A45CADDCEC767E9F1E9A00934750
:209562001BA8FFFD640C93D1554763169347530264069DFF9C019747530263FC5300620622
:209572009D019CFF9747530065FC8AA393D99DFE767E963493D1C4C3D00A5CAD83A3C292D4
:209582009741DCECCDC10008FFD29247767E95A3D00AC49206C30FA6D500D400EC02D501A2
:2095920092C19008CAA5EC02D40193A45CAD83A39247DCEC767E966AFEEE82BE86BE8BBEE8
:2095A2000006B2BDAABDA2BDFE068BA51E42924F82A49643767E9F2D1EA6A2A907A6190164
:2095B2001E46924365129CFF5AA98AA3767E9F2D5442630B9241EC098AC1020128C4003028
:2095C200564100C1000AFFF38AA3767E9F2D54426535924264338AA3767E9F2D9E4293410C
:2095D20080A9ED175200652A93A79DFFD40188A806460DA41E468A46938C5330A846ED09D9
:2095E20092A79CFF80A9000EFFF8064619011E4692A765149CFFD40188A906460DA41E46E9
:2095F2008A46928CA8468AC196C40201564100C1000EFFF8064619011E469242632EFF5CEE
:209602005AA9924354A265168AA3767E9F2D520065119CFFD40188A906460DA41E468A4678
:20961200928CA8468AC196C40201564100C1000EFFF8924354A26304FF5C96425A43924251
:20962200630C92A29CFF88A98AC1020128C40030564100C1000EFFFAFE868AC182BE86BE9D
:209632008BBE0006B2BD5200AABD59A9A2BD86A45BA8FE0265043B0185A16F04FF5C3B013E
:2096420085A9568F284100648AA2D50A568F767E97DD92A1520A630E1BA1FFF665078AC267
:20965200020128C40030564100C292A163039A2D6F029A2B8AC296C48AC2DC81A8C27BC4F2
:209662008AC2FE82DC81A8C282BE86BE8BBE0006B2BDAABDA2BD8BA5FE025200D20082A4D3
:209672001E42650C8AA3767E9F2D5442640786A33B018542560100A2DA819241EC078AC188
:20968200020128C4002E564100C1924296416F088AC1020128C40030564100C10B418AA3F6
:20969200767E9F2D544164F59241650FA2A90FA266128AC192C2DA8196C40201564100C1A0
:2096A200A2A90FA269F76F078AC1020128C40030564100C1FE828AC182BE86BE8BBE000676
:2096B200B2BDAABDA2BDFE068BA4A046865092D18352640418C1FFEF6F0328D1000192D936
:2096C2005258EC09526FEC095270EC055278EC03D30A6F04D3106F02D3088AA1767E97236F
:2096D2008AA992D1ED07565EA8A9565EED039A016F4488D992A65264EC035269ED0C565E51
:2096E200A8A9565E63088346A8A956588AA928C5000188D9A8A95DA38AA27E41767E97DD0A
:2096F2009C0154D188A9620C8AC2020128C40030564100C292A69C0154D188A965F692D942
:209702005278EC035258ED0E43C1EF0C8AC296C48AC2DC810201A8C228C40030564100C2B9
:2097120092D9526FED0943C1EF078AC2020128C40030564100C29A00FE8682BE86BE8BBE6C
:20972200000680DC92A75270ED1206C590019B00FF58EC03BE026F02BE010201A3C507A686
:20973200564100ABA9A4A9C5A3C46F2B56331EA6CCC40160522056C100855240EC4C1BA93F
:209742000100EC2192A7526F620B526FEC155258EC135264EC0B5269EC09FFEF008C527589
:20975200EC0B5278EC09FFEF00868AC53B01DC81A8C585C46F528AC5DC81A8C527C42BAA95
:2097620002006F7992A7526F620A526FEC1D5258EC1B5264EC095269EC076F6C5275EC1421
:209772005278EC126F6706C590019B00FF58ED11BE030201A3C507A6564100ABA9A4A9C517
:2097820006D4A3C46F5806C590019B00FF58ECF1BE046FF092A7526F620A526FEC21525895
:20979200EC1F5264EC095269EC076F445275EC185278EC166F3F06C590019B00FF58EC031E
:2097A200B6026F02B601BE0106A607A71EA606C503A68AA91EC506C4568F568F6F2C06C566
:2097B20090019B00FF58EC03BE026F02BE010201A3C507A6564100ABA9A40200A9C56FC2ED
:2097C20092A7526F620A526FEC975258EC955264EC095269EC076F0E5275EC8E5278ED0ADA
:2097D2006F8B8AC53B01DC81A8C585C4568F568F1EA606A60006B2BDAABDA2BDFE0A565EAE
:2097E2001E488BA4925396455BA50648A94A565EED088AC1020128C40030564100C16F34C3
:2097F2005CA30648A34A767E982EA944A9A53B011EA61E42AAAB85A3568F568FA9A200FE38
:209802009CD8A9A7A34A565D00A7A9A092455258ED09563328AB0010A9A93AAB565700A982
:20981200A9A03AA98F3EA0F4560100A492C48AC1565E96C40201564100C1A04AC248A34AC3
:209822000648565EEDCE8AC1767E9F2DFE8A82BE86BE8BBE190100061EA692A4A9A5FE049F
:209832005208EC045210EC066F0906A6A0AB56926F3606A6A0AB56936F3276C0FFFFA0AB7C
:2098420006A6C3442B422B4100FE9BC55200630827A50EAB2BAAF60F1FA427A96F140200E8
:209852001901A0AB1E442B422B4106A600FE9BC55200630B3B0185A48AA90200A0ABF61F92
:20986200561700A402006F0B3B0185A4568F568FA9441E4206A6A0AB767E9C47FE84000687
:209872008F3FFFFF8F7FFFFFA8A90FA5ED04D400BE006F078F3FFFFF88C4020207A48AA906
:2098820092A6767E85A400068F7EA13E58C49A01C4A53B0194A085A9560100A643C6EF0FBD
:20989200A8A9BE010DA68AA958C49A01C4A53B0194A085A9560100A643C6EEF392A02BAC12
:2098A200522DEC05522BB600ED086F02B601A8A9BE010DA68AA958C4C4A59A0194A085A96E
:2098B200560100A642C6EF14310A92ABBE0194A09CD02DA9A8A90DA68AA958C49A01C4A58A
:2098C2003B0194A085A9560100A642C6EEEE93A7EC0492ACFF5C2DA992AC0006B2BDAABD54
:2098D200A2BDFE1028AC0014964B8BA5C4D406C4865A8F0085801E46A84EC24428C40030BE
:2098E200064456100A4B18A907FF8F0007FF9B000FA42B4CED1B064456088000ED0D28AA44
:2098F200FFFF28ABFFFF28A87FEF28A9FFFFA9461E442BC26F2428AAFFFF28ABFFFF28A838
:20990200FFEF28A9FFFFA9461E445CAD8F7EA116DC86767E9B43D30052006302D3015CADCF
:209912007BC28F7EA116DC86767E9B43520063075CAD88ADDC86DE86767E9B6D5CAD8F7E2E
:20992200A11ADC86767E9B43520065125CAD88AD8F7EA11EDC86DE86767E8E335CAD0A4C89
:209932008F7EA11ADC86767E9B43520062F05CAD8F7EA116DC86767E9B435200EC1A5CAD13
:209942008F7EA122DC86767E9B43520063125CAD88AD8F7EA11EDC86DE86767E8EBE5CAD21
:209952000B4C8F7EA116DC86767E9B435200EDE8C44E5CAD020107A6DC861E50767E8F4F12
:209962008A50767E9CEC864E3B0185A9560100A293A9954C97C1934B55A9DA0165299FA956
:20997200974B924B652A9CFF5BA95CADDC86767E8F4F88ADDE8A767E902988AD5DAD5CAD19
:20998200DE86DD8ADC86767E8F415CAD88AD8F7EA11EDC86DE86767E8EBE5CADDC86767E65
:209992009B769B3095A99782000BFFE16F06864E854B560100A2DA01928A523564158AA262
:2099A200DC810AC492C4523A640828C40030928C9C01523A96C463FA064E0FA4ED052B8A64
:2099B2000AC18A4E6F032BC28A50FE9082BE86BE8BBE0006B2BDAABDA2BDFE1028AC00142D
:2099C200964B8BA5C4D406C4865A8F0083C01E46A84EC24428C40030064456100A4B18A91E
:2099D20007FF8F0007FF9B000FA42B4CED1B064456088000ED0D28AAFFFF28ABFFFF28A87A
:2099E2007FEF28A9FFFFA9461E442BC26F2428AAFFFF28ABFFFF28A8FFEF28A9FFFFA9463A
:2099F2001E445CAD8F7EA126DC86767E9B43D30052006302D3015CAD7BC28F7EA126DC8608
:209A0200767E9B43520063075CAD88ADDC86DE86767E9B6D5CAD8F7EA12ADC86767E9B43A1
:209A1200520065125CAD88AD8F7EA12EDC86DE86767E8E335CAD0A4C8F7EA12ADC86767E49
:209A22009B43520062F05CAD8F7EA126DC86767E9B435200EC1A5CAD8F7EA132DC86767EFA
:209A32009B43520063125CAD88AD8F7EA12EDC86DE86767E8EBE5CAD0B4C8F7EA126DC86B9
:209A4200767E9B435200EDE8C44E5CAD020107A6DC861E50767E8F4F8A50767E9CEC864E74
:209A52003B0185A9560100A2934C94A896C1924B94A8DA01964B65249CFF5BA95CADDC86B7
:209A6200767E8F4F88ADDE8A767E902988AD5DAD5CADDE86DD8ADC86767E8F415CAD88AD51
:209A72008F7EA12EDC86DE86767E8EBE5CADDC86767E9B769B3095A99782000BFFE1928A59
:209A8200523564118AA2DC810AC492C4523A640828C40030928C9C01523A96C463FA064EB5
:209A92000FA4EC042BC28A506F0C064E0FA268068F0083C0A84E2BCC6F022BC20AC18A4E9C
:209AA200FE9082BE86BE8BBE0006B2BDAABDA2BDFE0206A6FFE100845FDCA3C406D4FF90F3
:209AB200FFD4974106D456AA1AA8800056911BA70000630256588EA9A9A11B4100006004D0
:209AC20056A261726F7D1B4107FF61745FDDA3C506D5FF90FFD4974206D556AA1AA88000BF
:209AD20056911BA700006302565886A9A9A31B420000600456A2615B6F631B4207FF615AD8
:209AE20093419F42630AB2AB8BA3A9A33AAB8EA2A9A25D427D41FF5D2DA83AA9B2AB1BAC76
:209AF2000036630F1BAC00006108AAA9A2AB562C86A9A9A3B2AB3AA9565700A3564000A217
:209B0200565E565E612A97A7565E565E630256585C415635565221A35635565222A893A4CF
:209B12009FAC9FA397A42AA88DC00200565700A3D300564000A3630418A87FFF0AA45699AC
:209B2200910F0AA4651D1BA407FF631418A7800099A793A4FF93CBA7A9C61ED6FE8282BE3A
:209B320086BE8BBE000606D5A3C56FF706D4A3C46FF45633CDA780001AA87FF06FEE56339F
:209B42006FEC06D428A700010FD556B202A756B400A7600806C40FC556B602A756B800A748
:209B5200611906D4FF901BA8FFE0680C06D5FF901BA8FFE0680706D4FFDE92DDFFCE9EA846
:209B620000060BA73B0185DC92A7CFDD6302FF5C00069A00000606D4A3C4565E61031CA826
:209B720080001ED6A9C600065EDCA3C406D4FF90FFD497A506D456AA1AA8800008A5FC010B
:209B820064139A0F9EA565092DA9FF6392A81BA600006302FF5C000628A97FFF93A663FC12
:209B920028A980006FF99A006FF7FF5A06A66111A9A997A53100569691FF611253FF610A18
:209BA20008A8038056A318A58000CBA5A9C61ED600065633CDA580001AA87FF06FF85633C5
:209BB2006FF628ACFFFF0F426009A9A90F4456B100AC56B601AC92AC762056B100AC56B202
:209BC20001AC92AC762028ACFFFF0F426003A9A90F4456B100AC56B601AC92AC7620D500C2
:209BD200A0BDA0BDA0BDA0BDA0BDA0BD804FF3A72902565E565E630256588AA9A9A5A352C0
:209BE2000650630256581E4AA94C0FA46003A9A90FA5610F6613064A6113A0ABA8A9767E44
:209BF2009CA20642A3444FA76C025658FE8C000628AB00012BAA02006FF756336FF8020041
:209C0200A8ABF61F5617004CA9A4A0ABF61F5617004CA8A96FE9D500A0BDA0BDA0BDA0BDC9
:209C1200A0BDA0BD80A82902565E565E630256588AA9A9A5A3520650630256581E4AA94C6E
:209C22000FA46003A9A90FA56112660E064A6112A0ABA8A9767E9CA20646A3484FA76C02F3
:209C32005658FE8C0006A8A9A0AB6FF95633FE8C00060200A8ABF61F5617004CA0ABF61F34
:209C42005617004CFF5A02006FEAD500A0BDA0BDA0BDA0BDA0BDA0BD8AA9A9A50F5060034F
:209C5200A9A90F52610F68130650611306501E4A06521E4CA8A9767E9CA20642A344FE8CCE
:209C6200000628AB00012BAA02006FFA56336FF80200A8ABF61F56170052A9A4A0ABF61F02
:209C720056170052A8A96FECD500A0BDA0BDA0BDA0BDA0BDA0BD8AA9A9A50F506003A9A9CF
:209C82000F526111680E0650611006501E4A06521E4CA8A9767E9CA20646A348FE8C0006E8
:209C9200A8A96FFD56336FFB0200A8ABF61F56170052A0ABF61F56170052FF5A02006FEF01
:209CA200D03F565E565E640E5635565221A55635565222A893A09FAC9FA597A02AA856A002
:209CB200D88156A08AA9A9A5064AFF531E4AFF5A0648FF531E480F4C6003A9A90F4E680A7A
:209CC2000648565D004E5654004C1E48A94A3B086F03064829080646FF531E460644FF5312
:209CD2001E44A8A9A0AB0008FFDE0006761D1EBD874456050048A9A4564700488742A9A960
:209CE2005665004807AB87465665004407ABA8ABFE847620B2BDFF58D500FE166302D501DA
:209CF20058A55DADFF56DD832BC51EA6020A1E4206A600FE9F719C30968D020A1E4206A6B5
:209D020000FE9F621EA6FF58EDF292A0EC03288D002D59ADD9960EA103A509148BA9767E34
:209D12009066D98192A1FE968BBE000627A992A8650E9CFFB60188A993C592AB978454A81F
:209D2200EC07A0A90DA783A9000EFFF8D4000006761F0203C53E3E678F3FA00092A48F4071
:209D32000001761F02039001A038ED081CA5FFFF0201A83689A5EC0C6F0E020107A41E36D3
:209D42008AA9A0A919011E3892A59001ED0402015641003802028F7FFFFF03381EC4A0D4E9
:209D5200A83A2B34761F0203C53C3E670006B2BDFF581EA6AABD86A9EC3106A69001EC0400
:209D6200020107A686A9761F0203C53E3E67761F02039234EC03767E9D2A761F02038B365B
:209D72008F3FFFFFA8A90FA1EC15BE00A3C1A9A9FF541EA7AAA90FA7650A8AA1C4A18BD410
:209D82008F3FFFFFA8A90FA1EDF26F04A8A90FA1ED07761F0203C53C3E6702006F2AAAA97F
:209D920009040FA7680D06A6ED0606D1761F02031E366F048AA606D11ED4C3C16F14B2A947
:209DA20007A2090283A9AAA907AB09021EC506A6AAC1ED05761F0203A0366F038AA6A0D43F
:209DB20006D11ED5761F0203C53C3E67020207A186BE8AA98BBE0006A8A9B2BD8BA4EC4AF0
:209DC200761F0203C53E3E6783A1761F02038A36DD82A0A90FA46603B6006F06C5A48AD40B
:209DD200A0A90FA466FCA3C5A0A9BE0207AB0DA60FA4EC03A8D56F0C06D41ED506C48AA5DD
:209DE200FF5407C48AA509021EC48AA5A3C406A7EC168AA706A703C4D4020DA40FA5EC0412
:209DF2008AA7A0D46F0F8AA506D48AA71ED48AA7A9A9FF5407C48AA719026F07761F020305
:209E0200A0368AA5A9A9FF541EC4761F0203C53C3E678BBE0006B2BDAABDA2BDFE0252009E
:209E120086A49641ED078AA2767E9DBED400FFEF00A3AAA9ED073B018541767E9D59FFEF3A
:209E2200009B92419001EC020A418BA2761F0203AAA9C53ED98207C182A93E673B018541D6
:209E3200C5C11EA68541FF5A06A70FAB6311761F0203063A07380FA3696A8AC3A8A96267C7
:209E4200A8A9630606A703A409020FAB6860761F02038A36B2A90FA46907C5A48AD4B2A96B
:209E52000FA466FC6F02B600AAA9A3C107AB0FA4EC1CA9A903A6FF5A02040FAB664283A2AF
:209E62003B018541560100A5A9A91902FF5C85A91EC5A8D506A7C2C1ED05761F0203A036FA
:209E72006F308AA7A0D46F2D83C4565D00A5565D00A602020FAB631683D48AA23B0185413C
:209E8200560100A492ABFF5C85A91EC4A0D406A7C2C1ED05761F0203A8366F1383A7A8D5E6
:209E92006F1006A7ED0606D4761F02031E366F0406D48AA71ED4A0A9FF5407C109021EC10B
:209EA200761F0203C53C3E678AA26F15761F0203C53C3E673B018541767E9D5982A4A8A90D
:209EB200EC0983A28AA306C1767E90668AA2767E9DBE8AA3FE8282BE86BE8BBE0006B2BD2E
:209EC200C4462DA93B0193A612A859A985A9767E9D59A8A9C5A4EC0B8AA792A19CFF1BA9E3
:209ED200FFFFEC0588A92B84000EFFFF8BBE8AA70006D4000006761F0203B2BDC53E3E678A
:209EE200D100761F020392348336ED0E8F3FFFFFA8A90FA5EC093B0185A103C583D559A931
:209EF200A8A90FA5EDF9761F0203C53C3E6792A18BBE0006761F0203B2BDC53E3E67D10021
:209F0200761F020392348336ED108F3FFFFFA8A90FA5EC0BC4C53B0185A10FA6650259A65B
:209F120083D5A8A90FA5EDF7761F0203C53C3E6792A18BBEFF5C0006C4A4B601DE81DD81F5
:209F2200A0A90DA783A906A60DA71EA627C592AB3FC6EDF700060200D50119011EA6DC81A7
:209F3200A8A90DA58AA9DE0192C4EDFB06A60006FF581EACC4A5EC2483A4D001DD81DE81BB
:209F420006A60DA01EA6A0A90DA01EA727C683A992AB3FC7EC05ABA919011EACEDF2ABA672
:209F5200ABA919011EAC02010FA6670AA0A9BE010DA683A9ABA919012BC51EACEDF8000694
:209F620029022904565FFF5A0642565F1E420200F61F5617004206AB563229027620290231
:209F72002904565FFF5A0642FF561E420200F61F56170042563229027620FF5A0200F61F18
:149F820056170042A9A97620FF5A0200F61F5617004276207F
:209F8C0081B8003E81B8003E81B8003E81B8003E81B8003E81B8003E81B8003E81B8003EFD
:209F9C0081B8003E81B8003E81B8003E81B8003E81B8003E81B8003E81C4003E826B003E2D
:209FAC0081B2003E8230003E81BE003E81CA003E814C003E8146003E8140003E813A003E26
:209FBC008134003E812E003E8128003E8122003E811C003E815E003E8158003E8152003EBD
:209FCC0081B8003E81B8003E8105003E8110003E810A003E8271003E81B8003E8116003EAE
:209FDC008224003E8218003E820C003E8200003E81F4003E81E8003E8105003E8105003E3B
:209FEC00822A003E821E003E8212003E8206003E81FA003E81EE003E8105003E8105003E07
:209FFC00824D003E8247003E8241003E823B003E8105003E8105003E8105003E8105003E25
:20A00C0081E2003E81DC003E8105003E8105003E8105003E8105003E8105003E8105003E60
:20A01C00818E003E8176003E8188003E8170003E8182003E816A003E817C003E8164003E64
:20A02C008105003E8105003E8105003E8105003E8105003E8105003E8105003E8105003EF4
:20A03C0081D6003E81D0003E8105003E8105003E8105003E8105003E8105003E8105003E48
:20A04C0081AC003E81A0003E81A6003E819A003E8265003E8259003E825F003E8253003EFC
:20A05C008105003E8105003E8105003E8105003E8105003E8105003E8105003E8105003EC4
:20A06C008105003E8105003E8105003E8105003E8105003E8105003E8105003E8105003EB4
:20A07C008105003E8105003E8105003E8105003E8105003E8105003E8105003E8105003EA4
:20A08C00000000000000401400000000000040220000000000004024000000004000408F8B
:20A09C00004D006F0074006F00720000003D00530065006E0073006F00720000003D003D62
:20A0AC00004D006F0074006F0072003D00000000003D003D00530074006100720074003D81
:20A0BC0000000000004D00610078004D0069006E00000000006D0069006E0000006900008D
:20A0CC00006C006F00760065000000000079006F007500000000000000000000FFFFFFFF65
:20A0DC00FFFF7FEFFFFFFFFFFFFFFFEF0000000000003FF000000000000040240028006EE7
:20A0EC000075006C006C00290000000000250000003000310032003300340035003600371D
:20A0FC000038003900610062006300640065006600300031003200330034003500360037E2
:20A10C00003800390041004200430044004500460000000000000000000000000000FFC06E
:20A11C00FFFF41DF00000000000040240000000000003FF000000000000000000000FFC0B3
:20A12C00FFFF41DF00000000000040240000000000003FF0000000000000406000000000C2
:20A13C00000041000000002000200020002000200020002000200020002800280028002802
:20A14C000028002000200020002000200020002000200020002000200020002000200020EB
:20A15C0000200020002000880010001000100010001000100010001000100010001000103B
:20A16C000010001000100044004400440044004400440044004400440044001000100010CB
:20A17C000010001000100010004100410041004100410041000100010001000100010001F7
:20A18C00000100010001000100010001000100010001000100010001000100010010001085
:20A19C000010001000100010004200420042004200420042000200020002000200020002CB
:20A1AC00000200020002000200020002000200020002000200020002000200020010001057
:20A1BC00001000100020000000000000000000000000000000000000000000000000000043
:20A1CC00000000000000000000000000000000000000000000000000000000000000000073
:20A1DC00000000000000000000000000000000000000000000000000000000000000000063
:20A1EC00000000000000000000000000000000000000000000000000000000000000000053
:20A1FC00000000000000000000000000000000000000000000000000000000000000000043
:20A20C00000000000000000000000000000000000000000000000000000000000000000032
:20A21C00000000000000000000000000000000000000000000000000000000000000000022
:20A22C00000000000000000000000000000000000000000000000000000000000000000012
:20A23C00000000000000000000000000000000000000000000000000000000000000000002
:20A24C000000000000000000000000000000000000000000000000000000000000000000F2
:20A25C000000000000000000000000000000000000000000000000000000000000000000E2
:20A26C000000000000000000000000000000000000000000000000000000000000000000D2
:20A27C000000000000000000000000000000000000000000000000000000000000000000C2
:20A28C000000000000000000000000000000000000000000000000000000000000000000B2
:20A29C000000000000000000000000000000000000000000000000000000000000000000A2
:20A2AC00000000000000000000000000000000000000000000000000000000000000000092
:20A2BC00000000000000000000000000000000000000000000000000000000000000000082
:20A2CC00000000000000000000000000000000000000000000000000000000000000000072
:20A2DC00000000000000000000000000000000000000000000000000000000000000000062
:20A2EC00000000000000000000000000000000000000000000000000000000000000000052
:20A2FC00000000000000000000000000000000000000000000000000000000000000000042
:20A30C00000000000000000000000000000000000000000000000000000000000000000031
:20A31C00000000000000000000000000000000000000000000000000000000000000000021
:20A32C00000000000000000000000000000000000000000000000000000000000000000011
:06A33C000000000000001B
:20A33F000000000000000000000000000000000000000000000000000000000000000000FE
:20A34F000000000000000000000000000000000000000000000000000000000000000000EE
:20A35F000000000000000000000000000000000000000000000000000000000000000000DE
:20A36F000000000000000000000000000000000000000000000000000000000000000000CE
:20A37F000000000000000000000000000000000000000000000000000000000000000000BE
:20A38F000000000000000000000000000000000000000000000000000000000000000000AE
:20A39F0000000000000000000000000000000000000000000000000000000000000000009E
:20A3AF0000000000000000000000000000000000000000000000000000000000000000008E
:20A3BF0000000000000000000000000000000000000000000000000000000000000000007E
:20A3CF0000000000000000000000000000000000000000000000000000000000000000006E
:20A3DF000000000000000000000000000000007B00000000000000700000007000000014EF
:20A3EF00007F0014007F00140024002A007F002A00120023001300080064006200050022F4
:20A3FF0000550049003600000000006000500000000000410022001C00000000001C0022FD
:20A40F000041000000140008003E0008001400080008003E0008000800000000000600050D
:20A41F000000000800080008000800080000000000030003000000200010000800040002B1
:20A42F00003E005100490045003E00000001007F00210000003100490045004300210046A8
:20A43F0000690051004100420004007F00240014000C004E005100510051007200060049F7
:20A44F0000490029001E0070004800470040004000360049004900490036003C004A0049C8
:20A45F00004900300000000000360036000000000000003600350000000000410022001416
:20A46F000008001400140014001400140008001400220041000000300048004400450020C1
:20A47F000032004900790041003E003F004400440044003F0036004900490049007F00224E
:20A48F00004100410041003E001C002200410041007F0041004900490049007F004000484A
:20A49F0000480048007F002F004900490041003E007F000800080008007F00000041007F78
:20A4AF00004100000040007E0041000100020041002200140008007F000100010001000148
:20A4BF00007F007F002000180020007F007F000400080010007F003E004100410041003E4F
:20A4CF000030004800480048007F003D004200450041003E0031004A004C0048007F0046CF
:20A4DF00004900490049003100400040007F00400040007E000100010001007E007C000255
:20A4EF0000010002007C007E0001000E0001007E006300140008001400630070000800074D
:20A4FF000008007000610051004900450043000000410041007F000000540034001F003466
:20A50F0000540000007F004100410000001000200040002000100001000100010001000132
:20A51F0000000010002000400000000F0015001500150002000E001100110009007F0002A2
:20A52F00001100110011000E007F000900110011000E000C001500150015000E002000405A
:20A53F000048003F0008003E0025002500250018000F001000100008007F00000001005F92
:20A54F00001100000000005E00110001000200000011000A0004007F00000001007F00410A
:20A55F000000000F0010000C0010001F000F001000100008001F000E001100110011000EDD
:20A56F000008001400140014001F001F000C0014001400080008001000100008001F0002BD
:20A57F000015001500150009000200010011007E0010001F000200010001001E001C000273
:20A58F0000010002001C001E0001000E0001001E0011000A0004000A0011001E00050005DF
:20A59F0000050018001100190015001300110000004100360008000000000000007F00001E
:20A5AF0000000000000800360041000000000000000000000000000000000000000000000D
:20A5BF001EBD06465635563B1EA4FFD5EC3B58A876FFF4129B2CEBAC83AC879776FFF502EA
:20A5CF00C487560500A4566300A456A003A6FF54560500A9566300A956A287A9560500A446
:20A5DF00566300A456A003A6FF54560500A9566300A956A287BE560500A9566300A956A10D
:20A5EF0087A5562C5657008756400087565000D7565900C7566100F7565100E7568006AB97
:20A5FF00000628A9FFFF28A87FFFFE8200061EBD06465635563B1EA4FFD5EC3B58A876FF1E
:20A60F00F4129B25EBAC83AC879776FFF502C487560500A4566300A456A003A6FF54560521
:20A61F0000A9566300A956A287A9560500A4566300A456A003A6FF54560500A9566300A934
:20A62F0056A287BE560500A9566300A956A187A5562C5657008756400087565000D7565946
:20A63F0000C7566100F7565100E7568006AB000628A9FFFF28A87FFFFE8200065635563BAC
:20A64F00C4A9FFB556B5FEA808A8FF0258A840AC93ACFFD01EBD76FFF7228A9776FFF71266
:20A65F00838756BC0CA056BD0AA087A4566300AC87A6FF31566300A987A5564100AC5663DF
:20A66F0000A4FF318AA987A4566300AC87A6FF31566300A987A5564100AC566300A4FF3179
:20A67F0087A6566300A98797560500A9566300A9568787BE562C08AA8000564000D700065F
:20A68F001EBD06465635563B1EA4FFD5EC3B58A876FFF4129B36EBAC83AC879776FFF5020F
:20A69F00C487560500A4566300A456A003A6FF54560500A9566300A956A287A9560500A475
:20A6AF00566300A456A003A6FF54560500A9566300A956A287BE560500A9566300A956A13C
:20A6BF0087A5562C5657008756400087565000D7565900C7566100F7565100E7568006ABC6
:0EA6CF00000628A9FFFF28A87FFFFE820006D4
:20A6D600FFFF800F00000000FFFE8014000000000000FFFE801C0000A0123ED6FFFE801E4C
:20A6E6000000200044FAFFFE8020000000000000FFFE80220000000043FAFFFE80240000DC
:20A6F60000000000FFFE8026000000000000FFFE8028000000000000FFFE802A0000000055
:20A706000000FFFA80400000000000000000000000000000FFFE81C00000A09C003EFFFAC9
:20A7160081C20000A0A2003EA0AA003EA0B4003EFFF681CA0000A0BE003EA0C6003EA0CA5C
:20A72600003EA0CC003EA0D2003EFFF08180000000080000000C000000040000000600006D
:20A7360000020000000300000001000000090000FFF0819000000080000000C00000004074
:20A7460000000060000000200000003000000010000000900000FFFF810000000000FFFE27
:20A756008102000000000000FFFE8104000000000000FFFE80FC000090DE003EFFFE80FE3E
:10A76600000090DE003EFFFF80F4000000010000C4
:20A76E0076228F000A801AC400011AD40003CCF4F3FF761F002A1AA903009606CC06FFF0B6
:20A77E0050039606CCFCFFE0500596071AE401FF1AEC01FF761AF60A7700FF6900061901A0
:06A78E0056C3FFFF0006A8
:00000001FF
